{"abi":[{"type":"constructor","inputs":[{"name":"resolver_","type":"address","internalType":"address"},{"name":"owner_","type":"address","internalType":"address"}],"stateMutability":"nonpayable"},{"type":"function","name":"BURN_ADDRESS","inputs":[],"outputs":[{"name":"","type":"address","internalType":"address"}],"stateMutability":"view"},{"type":"function","name":"HOUSE_PCT","inputs":[],"outputs":[{"name":"","type":"uint256","internalType":"uint256"}],"stateMutability":"view"},{"type":"function","name":"SAIRI","inputs":[],"outputs":[{"name":"","type":"address","internalType":"address"}],"stateMutability":"view"},{"type":"function","name":"SWAP_ROUTER","inputs":[],"outputs":[{"name":"","type":"address","internalType":"address"}],"stateMutability":"view"},{"type":"function","name":"UNISWAP_POOL_FEE","inputs":[],"outputs":[{"name":"","type":"uint24","internalType":"uint24"}],"stateMutability":"view"},{"type":"function","name":"USDC","inputs":[],"outputs":[{"name":"","type":"address","internalType":"address"}],"stateMutability":"view"},{"type":"function","name":"USDT","inputs":[],"outputs":[{"name":"","type":"address","internalType":"address"}],"stateMutability":"view"},{"type":"function","name":"WETH","inputs":[],"outputs":[{"name":"","type":"address","internalType":"address"}],"stateMutability":"view"},{"type":"function","name":"WINNER_PCT","inputs":[],"outputs":[{"name":"","type":"uint256","internalType":"uint256"}],"stateMutability":"view"},{"type":"function","name":"cancelFight","inputs":[{"name":"fightId","type":"bytes32","internalType":"bytes32"}],"outputs":[],"stateMutability":"nonpayable"},{"type":"function","name":"createFight","inputs":[{"name":"fightId","type":"bytes32","internalType":"bytes32"},{"name":"token","type":"address","internalType":"address"},{"name":"stakeAmount","type":"uint256","internalType":"uint256"}],"outputs":[],"stateMutability":"nonpayable"},{"type":"function","name":"createFightFor","inputs":[{"name":"fightId","type":"bytes32","internalType":"bytes32"},{"name":"token","type":"address","internalType":"address"},{"name":"stakeAmount","type":"uint256","internalType":"uint256"},{"name":"playerA","type":"address","internalType":"address"}],"outputs":[],"stateMutability":"nonpayable"},{"type":"function","name":"createFightForWithDeadlines","inputs":[{"name":"fightId","type":"bytes32","internalType":"bytes32"},{"name":"token","type":"address","internalType":"address"},{"name":"stakeAmount","type":"uint256","internalType":"uint256"},{"name":"playerA","type":"address","internalType":"address"},{"name":"joinDeadline","type":"uint256","internalType":"uint256"},{"name":"resolveDeadline","type":"uint256","internalType":"uint256"}],"outputs":[],"stateMutability":"nonpayable"},{"type":"function","name":"createFightWithDeadlines","inputs":[{"name":"fightId","type":"bytes32","internalType":"bytes32"},{"name":"token","type":"address","internalType":"address"},{"name":"stakeAmount","type":"uint256","internalType":"uint256"},{"name":"joinDeadline","type":"uint256","internalType":"uint256"},{"name":"resolveDeadline","type":"uint256","internalType":"uint256"}],"outputs":[],"stateMutability":"nonpayable"},{"type":"function","name":"emergencyWithdraw","inputs":[{"name":"token","type":"address","internalType":"address"}],"outputs":[],"stateMutability":"nonpayable"},{"type":"function","name":"fights","inputs":[{"name":"","type":"bytes32","internalType":"bytes32"}],"outputs":[{"name":"fightId","type":"bytes32","internalType":"bytes32"},{"name":"tokenUsed","type":"address","internalType":"address"},{"name":"stakeAmount","type":"uint256","internalType":"uint256"},{"name":"joinDeadline","type":"uint256","internalType":"uint256"},{"name":"resolveDeadline","type":"uint256","internalType":"uint256"},{"name":"playerA","type":"address","internalType":"address"},{"name":"playerB","type":"address","internalType":"address"},{"name":"playerAStaked","type":"bool","internalType":"bool"},{"name":"playerBStaked","type":"bool","internalType":"bool"},{"name":"resolved","type":"bool","internalType":"bool"},{"name":"winner","type":"address","internalType":"address"}],"stateMutability":"view"},{"type":"function","name":"getFight","inputs":[{"name":"fightId","type":"bytes32","internalType":"bytes32"}],"outputs":[{"name":"fight","type":"tuple","internalType":"struct FaightersEscrow.Fight","components":[{"name":"fightId","type":"bytes32","internalType":"bytes32"},{"name":"tokenUsed","type":"address","internalType":"address"},{"name":"stakeAmount","type":"uint256","internalType":"uint256"},{"name":"joinDeadline","type":"uint256","internalType":"uint256"},{"name":"resolveDeadline","type":"uint256","internalType":"uint256"},{"name":"playerA","type":"address","internalType":"address"},{"name":"playerB","type":"address","internalType":"address"},{"name":"playerAStaked","type":"bool","internalType":"bool"},{"name":"playerBStaked","type":"bool","internalType":"bool"},{"name":"resolved","type":"bool","internalType":"bool"},{"name":"winner","type":"address","internalType":"address"}]}],"stateMutability":"view"},{"type":"function","name":"getWithdrawableSurplus","inputs":[{"name":"token","type":"address","internalType":"address"}],"outputs":[{"name":"amount","type":"uint256","internalType":"uint256"}],"stateMutability":"view"},{"type":"function","name":"joinFight","inputs":[{"name":"fightId","type":"bytes32","internalType":"bytes32"}],"outputs":[],"stateMutability":"nonpayable"},{"type":"function","name":"joinFightFor","inputs":[{"name":"fightId","type":"bytes32","internalType":"bytes32"},{"name":"playerB","type":"address","internalType":"address"}],"outputs":[],"stateMutability":"nonpayable"},{"type":"function","name":"owner","inputs":[],"outputs":[{"name":"","type":"address","internalType":"address"}],"stateMutability":"view"},{"type":"function","name":"pause","inputs":[],"outputs":[],"stateMutability":"nonpayable"},{"type":"function","name":"paused","inputs":[],"outputs":[{"name":"","type":"bool","internalType":"bool"}],"stateMutability":"view"},{"type":"function","name":"renounceOwnership","inputs":[],"outputs":[],"stateMutability":"nonpayable"},{"type":"function","name":"reservedTokenBalance","inputs":[{"name":"","type":"address","internalType":"address"}],"outputs":[{"name":"","type":"uint256","internalType":"uint256"}],"stateMutability":"view"},{"type":"function","name":"resolveFight","inputs":[{"name":"fightId","type":"bytes32","internalType":"bytes32"},{"name":"winnerAddress","type":"address","internalType":"address"}],"outputs":[],"stateMutability":"nonpayable"},{"type":"function","name":"resolveFight","inputs":[{"name":"fightId","type":"bytes32","internalType":"bytes32"},{"name":"winnerAddress","type":"address","internalType":"address"},{"name":"minSairiOut","type":"uint256","internalType":"uint256"}],"outputs":[],"stateMutability":"nonpayable"},{"type":"function","name":"resolver","inputs":[],"outputs":[{"name":"","type":"address","internalType":"address"}],"stateMutability":"view"},{"type":"function","name":"setResolver","inputs":[{"name":"newResolver","type":"address","internalType":"address"}],"outputs":[],"stateMutability":"nonpayable"},{"type":"function","name":"transferOwnership","inputs":[{"name":"newOwner","type":"address","internalType":"address"}],"outputs":[],"stateMutability":"nonpayable"},{"type":"function","name":"unpause","inputs":[],"outputs":[],"stateMutability":"nonpayable"},{"type":"event","name":"EmergencyWithdraw","inputs":[{"name":"token","type":"address","indexed":true,"internalType":"address"},{"name":"to","type":"address","indexed":true,"internalType":"address"},{"name":"amount","type":"uint256","indexed":false,"internalType":"uint256"}],"anonymous":false},{"type":"event","name":"FightCancelled","inputs":[{"name":"fightId","type":"bytes32","indexed":true,"internalType":"bytes32"},{"name":"cancelledBy","type":"address","indexed":true,"internalType":"address"}],"anonymous":false},{"type":"event","name":"FightCreated","inputs":[{"name":"fightId","type":"bytes32","indexed":true,"internalType":"bytes32"},{"name":"playerA","type":"address","indexed":true,"internalType":"address"},{"name":"token","type":"address","indexed":true,"internalType":"address"},{"name":"stakeAmount","type":"uint256","indexed":false,"internalType":"uint256"}],"anonymous":false},{"type":"event","name":"FightJoined","inputs":[{"name":"fightId","type":"bytes32","indexed":true,"internalType":"bytes32"},{"name":"playerB","type":"address","indexed":true,"internalType":"address"}],"anonymous":false},{"type":"event","name":"FightResolved","inputs":[{"name":"fightId","type":"bytes32","indexed":true,"internalType":"bytes32"},{"name":"winner","type":"address","indexed":true,"internalType":"address"},{"name":"tokenUsed","type":"address","indexed":true,"internalType":"address"},{"name":"winnerPayout","type":"uint256","indexed":false,"internalType":"uint256"},{"name":"houseCutInput","type":"uint256","indexed":false,"internalType":"uint256"},{"name":"sairiBurned","type":"uint256","indexed":false,"internalType":"uint256"}],"anonymous":false},{"type":"event","name":"OwnershipTransferred","inputs":[{"name":"previousOwner","type":"address","indexed":true,"internalType":"address"},{"name":"newOwner","type":"address","indexed":true,"internalType":"address"}],"anonymous":false},{"type":"event","name":"Paused","inputs":[{"name":"account","type":"address","indexed":false,"internalType":"address"}],"anonymous":false},{"type":"event","name":"ResolverUpdated","inputs":[{"name":"previousResolver","type":"address","indexed":true,"internalType":"address"},{"name":"newResolver","type":"address","indexed":true,"internalType":"address"}],"anonymous":false},{"type":"event","name":"Unpaused","inputs":[{"name":"account","type":"address","indexed":false,"internalType":"address"}],"anonymous":false},{"type":"error","name":"AddressEmptyCode","inputs":[{"name":"target","type":"address","internalType":"address"}]},{"type":"error","name":"AddressInsufficientBalance","inputs":[{"name":"account","type":"address","internalType":"address"}]},{"type":"error","name":"AlreadyJoined","inputs":[{"name":"fightId","type":"bytes32","internalType":"bytes32"}]},{"type":"error","name":"CannotJoinOwnFight","inputs":[]},{"type":"error","name":"EnforcedPause","inputs":[]},{"type":"error","name":"ExpectedPause","inputs":[]},{"type":"error","name":"FailedInnerCall","inputs":[]},{"type":"error","name":"FightAlreadyExists","inputs":[{"name":"fightId","type":"bytes32","internalType":"bytes32"}]},{"type":"error","name":"FightNotFound","inputs":[{"name":"fightId","type":"bytes32","internalType":"bytes32"}]},{"type":"error","name":"FightNotReady","inputs":[{"name":"fightId","type":"bytes32","internalType":"bytes32"}]},{"type":"error","name":"FightResolvedAlready","inputs":[{"name":"fightId","type":"bytes32","internalType":"bytes32"}]},{"type":"error","name":"InvalidDeadlineWindow","inputs":[]},{"type":"error","name":"InvalidFightId","inputs":[]},{"type":"error","name":"InvalidPercentConfig","inputs":[]},{"type":"error","name":"InvalidStakeAmount","inputs":[]},{"type":"error","name":"InvalidWinner","inputs":[{"name":"winner","type":"address","internalType":"address"}]},{"type":"error","name":"JoinDeadlinePassed","inputs":[{"name":"fightId","type":"bytes32","internalType":"bytes32"},{"name":"joinDeadline","type":"uint256","internalType":"uint256"}]},{"type":"error","name":"MinSairiOutRequired","inputs":[]},{"type":"error","name":"NoSurplusAvailable","inputs":[{"name":"token","type":"address","internalType":"address"}]},{"type":"error","name":"OwnableInvalidOwner","inputs":[{"name":"owner","type":"address","internalType":"address"}]},{"type":"error","name":"OwnableUnauthorizedAccount","inputs":[{"name":"account","type":"address","internalType":"address"}]},{"type":"error","name":"ReentrancyGuardReentrantCall","inputs":[]},{"type":"error","name":"ResolveDeadlinePassed","inputs":[{"name":"fightId","type":"bytes32","internalType":"bytes32"},{"name":"resolveDeadline","type":"uint256","internalType":"uint256"}]},{"type":"error","name":"ResolverOnly","inputs":[]},{"type":"error","name":"SafeERC20FailedOperation","inputs":[{"name":"token","type":"address","internalType":"address"}]},{"type":"error","name":"Unauthorized","inputs":[]},{"type":"error","name":"UnsupportedToken","inputs":[{"name":"token","type":"address","internalType":"address"}]},{"type":"error","name":"ZeroAddress","inputs":[]}],"bytecode":{"object":"0x608060405234801562000010575f80fd5b506040516200217638038062002176833981016040819052620000339162000167565b806001600160a01b0381166200006257604051631e4fbdf760e01b81525f600482015260240160405180910390fd5b6200006d81620000fc565b505f805460ff60a01b19169055600180556001600160a01b038216620000a65760405163d92e233d60e01b815260040160405180910390fd5b620000b4601e60466200019d565b606414620000d557604051630cb521c960e01b815260040160405180910390fd5b50600280546001600160a01b0319166001600160a01b0392909216919091179055620001c3565b5f80546001600160a01b038381166001600160a01b0319831681178455604051919092169283917f8be0079c531659141344cd1fd0a4f28419497f9722a3daafe3b4186f6b6457e09190a35050565b80516001600160a01b038116811462000162575f80fd5b919050565b5f806040838503121562000179575f80fd5b62000184836200014b565b915062000194602084016200014b565b90509250929050565b80820180821115620001bd57634e487b7160e01b5f52601160045260245ffd5b92915050565b611fa580620001d15f395ff3fe608060405234801561000f575f80fd5b50600436106101dc575f3560e01c806391d0566611610109578063d24057ae1161009e578063fccc28131161006e578063fccc2813146105f5578063fe188ed4146105fe578063fe6fe29b14610611578063ff7ac5dd14610624575f80fd5b8063d24057ae1461048b578063e12dd544146104aa578063e23ab804146105cf578063f2fde38b146105e2575f80fd5b8063ad5c4648116100d9578063ad5c46481461042a578063b05a442814610438578063c54e44eb14610455578063c600589314610470575f80fd5b806391d056661461030157806399ca2587146103e95780639b48e2e4146104045780639e01854a14610417575f80fd5b8063682b3a981161017f5780638456cb591161014f5780638456cb59146102bb578063898b318c146102c357806389a30271146102d65780638da5cb5b146102f1575f80fd5b8063682b3a98146102855780636ff1c9bc14610298578063715018a6146102ab5780638278e8a8146102b3575f80fd5b80633f4ba83a116101ba5780633f4ba83a1461023b5780634e543b2614610243578063545bb371146102565780635c975abb14610269575f80fd5b806304f3bcec146101e0578063095a6a331461021057806322bf50ea14610225575b5f80fd5b6002546101f3906001600160a01b031681565b6040516001600160a01b0390911681526020015b60405180910390f35b61022361021e366004611c5b565b610637565b005b61022d601e81565b604051908152602001610207565b61022361065d565b610223610251366004611c8d565b61066f565b610223610264366004611ca6565b6106ef565b5f54600160a01b900460ff166040519015158152602001610207565b610223610293366004611c5b565b61076d565b6102236102a6366004611c8d565b6109a2565b610223610a6f565b61022d604681565b610223610a80565b6102236102d1366004611ce9565b610a90565b6101f373833589fcd6edb6e08f4c7c32d4f71b54bda0291381565b5f546001600160a01b03166101f3565b61038661030f366004611c5b565b600460208190525f91825260409091208054600182015460028301546003840154948401546005850154600686015460079096015494966001600160a01b0394851696939590949293918316928281169260ff600160a01b8204811693600160a81b8304821693600160b01b90930490911691168b565b604080519b8c526001600160a01b039a8b1660208d01528b019890985260608a0196909652608089019490945291861660a0880152851660c0870152151560e0860152151561010085015215156101208401521661014082015261016001610207565b6101f373de61878b0b21ce395266c44d4d548d1c72a3eb0781565b610223610412366004611d13565b610b08565b610223610425366004611d45565b610b34565b6101f36006602160991b0181565b610441610bb881565b60405162ffffff9091168152602001610207565b6101f373fde4c96c8593536e31f229ea8f37b2ada2699bb281565b6101f3732626664c2603336e57b271c5c0b26f421741e48181565b61022d610499366004611c8d565b60036020525f908152604090205481565b6105c26104b8366004611c5b565b60408051610160810182525f80825260208201819052918101829052606081018290526080810182905260a0810182905260c0810182905260e0810182905261010081018290526101208101829052610140810191909152505f908152600460208181526040928390208351610160810185528154815260018201546001600160a01b0390811693820193909352600282015494810194909452600381015460608501529182015460808401526005820154811660a0840152600682015480821660c085015260ff600160a01b82048116151560e0860152600160a81b820481161515610100860152600160b01b9091041615156101208401526007909101541661014082015290565b6040516102079190611d87565b6102236105dd366004611e49565b610b62565b6102236105f0366004611c8d565b610be2565b6101f361dead81565b61022361060c366004611ce9565b610c1c565b61022d61061f366004611c8d565b610c61565b610223610632366004611d13565b610d09565b61063f610d4e565b610647610d78565b6106518133610da2565b61065a60018055565b50565b610665610f60565b61066d610f8c565b565b610677610f60565b6001600160a01b03811661069e5760405163d92e233d60e01b815260040160405180910390fd5b600280546001600160a01b038381166001600160a01b0319831681179093556040519116919082907f84b83d2b66cac119ccaaca68b476b0dc5371d5f2fd27f697770a910175fd38b6905f90a35050565b6106f7610d4e565b6002546001600160a01b031633146107215760405162f6250b60e81b815260040160405180910390fd5b610729610d78565b6001600160a01b0381166107505760405163d92e233d60e01b815260040160405180910390fd5b61075e848484845f80610fe0565b61076760018055565b50505050565b610775610d4e565b61077d610d78565b5f81815260046020526040902060058101546001600160a01b03166107bd57604051634f36907760e11b8152600481018390526024015b60405180910390fd5b6006810154600160b01b900460ff16156107ed5760405163e4f5cb2560e01b8152600481018390526024016107b4565b6002546005820154336001600160a01b039283168114925f921614801561082057506006830154600160a81b900460ff16155b90508115801561082e575080155b1561084b576040516282b42960e81b815260040160405180910390fd5b60068301545f90600160a01b900460ff16156108735760028401546108709082611eb1565b90505b6006840154600160a81b900460ff16156108995760028401546108969082611eb1565b90505b60018401546001600160a01b03165f90815260036020526040812080548392906108c4908490611ec4565b909155505060068401805460ff60b01b1916600160b01b17908190556007850180546001600160a01b031916905560018501546001600160a01b031690600160a01b900460ff16156109325760058501546002860154610932916001600160a01b03848116929116906112f3565b6006850154600160a81b900460ff16156109685760068501546002860154610968916001600160a01b03848116929116906112f3565b604051339087907fbf5a0814c938c654b0e4bf6ae8d16dffb5b71733990b19e57bb59534c389e5d8905f90a3505050505061065a60018055565b6109aa610f60565b6109b2610d4e565b5f6109bc82610c61565b9050805f036109e957604051635b8d44b960e11b81526001600160a01b03831660048201526024016107b4565b610a0e6109fd5f546001600160a01b031690565b6001600160a01b03841690836112f3565b5f546001600160a01b03166001600160a01b0316826001600160a01b03167ff24ef89f38eadc1bde50701ad6e4d6d11a2dc24f7cf834a486991f388332850483604051610a5d91815260200190565b60405180910390a35061065a60018055565b610a77610f60565b61066d5f611352565b610a88610f60565b61066d6113a1565b610a98610d4e565b6002546001600160a01b03163314610ac25760405162f6250b60e81b815260040160405180910390fd5b610aca610d78565b6001600160a01b038116610af15760405163d92e233d60e01b815260040160405180910390fd5b610afb8282610da2565b610b0460018055565b5050565b610b10610d4e565b610b18610d78565b610b26838383335f80610fe0565b610b2f60018055565b505050565b610b3c610d4e565b610b44610d78565b610b52858585338686610fe0565b610b5b60018055565b5050505050565b610b6a610d4e565b6002546001600160a01b03163314610b945760405162f6250b60e81b815260040160405180910390fd5b610b9c610d78565b6001600160a01b038316610bc35760405163d92e233d60e01b815260040160405180910390fd5b610bd1868686868686610fe0565b610bda60018055565b505050505050565b610bea610f60565b6001600160a01b038116610c1357604051631e4fbdf760e01b81525f60048201526024016107b4565b61065a81611352565b610c24610d4e565b6002546001600160a01b03163314610c4e5760405162f6250b60e81b815260040160405180910390fd5b610c56610d78565b610afb82825f6113e3565b6040516370a0823160e01b81523060048201525f9081906001600160a01b038416906370a0823190602401602060405180830381865afa158015610ca7573d5f803e3d5ffd5b505050506040513d601f19601f82011682018060405250810190610ccb9190611ed7565b6001600160a01b0384165f9081526003602052604090205490915080821115610d0057610cf88183611ec4565b949350505050565b505f9392505050565b610d11610d4e565b6002546001600160a01b03163314610d3b5760405162f6250b60e81b815260040160405180910390fd5b610d43610d78565b610b268383836113e3565b600260015403610d7157604051633ee5aeb560e01b815260040160405180910390fd5b6002600155565b5f54600160a01b900460ff161561066d5760405163d93c066560e01b815260040160405180910390fd5b5f82815260046020526040902060058101546001600160a01b0316610ddd57604051634f36907760e11b8152600481018490526024016107b4565b6006810154600160b01b900460ff1615610e0d5760405163e4f5cb2560e01b8152600481018490526024016107b4565b6006810154600160a81b900460ff1615610e3d5760405163eb362cf960e01b8152600481018490526024016107b4565b60058101546001600160a01b0390811690831603610e6e57604051638b791dbf60e01b815260040160405180910390fd5b600381015415801590610e845750806003015442115b15610eb25760038101546040516338f44c7f60e21b81526107b4918591600401918252602082015260400190565b60028101546001820154610ed5916001600160a01b039091169084903090611815565b600281015460018201546001600160a01b03165f9081526003602052604081208054909190610f05908490611eb1565b9091555050600681018054600161ff0160a01b0319166001600160a01b038416908117600160a81b1790915560405184907fd6611b95639cbe27ceb686419e589b7ae1961226f668ed2118ca634678a5c60e905f90a3505050565b5f546001600160a01b0316331461066d5760405163118cdaa760e01b81523360048201526024016107b4565b610f9461184e565b5f805460ff60a01b191690557f5db9ee0a495bf2e6ff9c91a7834c1ba4fdd244a5e8aa4e537bd38aeae4b073aa335b6040516001600160a01b03909116815260200160405180910390a1565b85610ffe5760405163bfc270c960e01b815260040160405180910390fd5b61100785611877565b61102f57604051635f8b555b60e11b81526001600160a01b03861660048201526024016107b4565b835f0361104f57604051630103be3b60e21b815260040160405180910390fd5b5f86815260046020526040902060058101546001600160a01b03161561108b57604051630b5eae5d60e31b8152600481018890526024016107b4565b6110958383611906565b6110aa6001600160a01b038716853088611815565b6001600160a01b0386165f90815260036020526040812080548792906110d1908490611eb1565b92505081905550604051806101600160405280888152602001876001600160a01b03168152602001868152602001848152602001838152602001856001600160a01b031681526020015f6001600160a01b031681526020016001151581526020015f151581526020015f151581526020015f6001600160a01b031681525060045f8981526020019081526020015f205f820151815f01556020820151816001015f6101000a8154816001600160a01b0302191690836001600160a01b0316021790555060408201518160020155606082015181600301556080820151816004015560a0820151816005015f6101000a8154816001600160a01b0302191690836001600160a01b0316021790555060c0820151816006015f6101000a8154816001600160a01b0302191690836001600160a01b0316021790555060e08201518160060160146101000a81548160ff0219169083151502179055506101008201518160060160156101000a81548160ff0219169083151502179055506101208201518160060160166101000a81548160ff021916908315150217905550610140820151816007015f6101000a8154816001600160a01b0302191690836001600160a01b03160217905550905050856001600160a01b0316846001600160a01b0316887f3da64c852b707e38e842519977f32c8c2c9dc3860fefb03519e361f73a245b96886040516112e291815260200190565b60405180910390a450505050505050565b6040516001600160a01b03838116602483015260448201839052610b2f91859182169063a9059cbb906064015b604051602081830303815290604052915060e01b6020820180516001600160e01b038381831617835250505050611998565b5f80546001600160a01b038381166001600160a01b0319831681178455604051919092169283917f8be0079c531659141344cd1fd0a4f28419497f9722a3daafe3b4186f6b6457e09190a35050565b6113a9610d78565b5f805460ff60a01b1916600160a01b1790557f62e78cea01bee320cd4e420270b5ea74000d11b0c9f74754ebdbfc544b05a258610fc33390565b5f83815260046020526040902060058101546001600160a01b031661141e57604051634f36907760e11b8152600481018590526024016107b4565b6006810154600160b01b900460ff161561144e5760405163e4f5cb2560e01b8152600481018590526024016107b4565b6006810154600160a01b900460ff16158061147557506006810154600160a81b900460ff16155b1561149657604051631eea52db60e31b8152600481018590526024016107b4565b60058101546001600160a01b038481169116148015906114c6575060068101546001600160a01b03848116911614155b156114ef576040516312967cad60e31b81526001600160a01b03841660048201526024016107b4565b6004810154158015906115055750806004015442115b15611530576004808201546040516312fa774b60e31b815291820186905260248201526044016107b4565b5f816002015460026115429190611eee565b90505f6064611552604684611eee565b61155c9190611f05565b90505f6115698284611ec4565b60018501546001600160a01b03165f90815260036020526040812080549293508592909190611599908490611ec4565b909155505060068401805460ff60b01b1916600160b01b1790556007840180546001600160a01b038089166001600160a01b0319909216919091179091556001850154166115e88188856112f3565b60018501545f906001600160a01b031673de61878b0b21ce395266c44d4d548d1c72a3eb06190161163057508161162b6001600160a01b03831661dead836112f3565b6117b3565b865f036116505760405163381425e560e01b815260040160405180910390fd5b6116786001600160a01b038316732626664c2603336e57b271c5c0b26f421741e481856119f9565b604080516101008101825260018801546001600160a01b03908116825273de61878b0b21ce395266c44d4d548d1c72a3eb0760208301908152610bb88385019081523060608501908152426080860190815260a086018a815260c087018f81525f60e08901908152985163414bf38960e01b8152885188166004820152955187166024870152935162ffffff1660448601529151851660648501525160848401525160a48301525160c482015292511660e483015290732626664c2603336e57b271c5c0b26f421741e4819063414bf38990610104016020604051808303815f875af115801561176a573d5f803e3d5ffd5b505050506040513d601f19601f8201168201806040525081019061178e9190611ed7565b91506117b173de61878b0b21ce395266c44d4d548d1c72a3eb0761dead846112f3565b505b600186015460408051868152602081018690529081018390526001600160a01b03918216918a16908b907f474befbea7a499c975feb76e94d59d7f1f356ad469601a43578ed85d09237c949060600160405180910390a4505050505050505050565b6040516001600160a01b0384811660248301528381166044830152606482018390526107679186918216906323b872dd90608401611320565b5f54600160a01b900460ff1661066d57604051638dfc202b60e01b815260040160405180910390fd5b5f6001600160a01b0382166006602160991b0114806118b257506001600160a01b03821673833589fcd6edb6e08f4c7c32d4f71b54bda02913145b806118d957506001600160a01b03821673fde4c96c8593536e31f229ea8f37b2ada2699bb2145b8061190057506001600160a01b03821673de61878b0b21ce395266c44d4d548d1c72a3eb07145b92915050565b81158015906119155750428211155b156119335760405163b20aeb0360e01b815260040160405180910390fd5b80158015906119425750428111155b156119605760405163b20aeb0360e01b815260040160405180910390fd5b811580159061196e57508015155b801561197a5750818111155b15610b045760405163b20aeb0360e01b815260040160405180910390fd5b5f6119ac6001600160a01b03841683611a88565b905080515f141580156119d05750808060200190518101906119ce9190611f24565b155b15610b2f57604051635274afe760e01b81526001600160a01b03841660048201526024016107b4565b604080516001600160a01b038416602482015260448082018490528251808303909101815260649091019091526020810180516001600160e01b031663095ea7b360e01b179052611a4a8482611a9c565b610767576040516001600160a01b0384811660248301525f6044830152611a7e91869182169063095ea7b390606401611320565b6107678482611998565b6060611a9583835f611b3d565b9392505050565b5f805f846001600160a01b031684604051611ab79190611f43565b5f604051808303815f865af19150503d805f8114611af0576040519150601f19603f3d011682016040523d82523d5f602084013e611af5565b606091505b5091509150818015611b1f575080511580611b1f575080806020019051810190611b1f9190611f24565b8015611b3457505f856001600160a01b03163b115b95945050505050565b606081471015611b625760405163cd78605960e01b81523060048201526024016107b4565b5f80856001600160a01b03168486604051611b7d9190611f43565b5f6040518083038185875af1925050503d805f8114611bb7576040519150601f19603f3d011682016040523d82523d5f602084013e611bbc565b606091505b5091509150611bcc868383611bd6565b9695505050505050565b606082611beb57611be682611c32565b611a95565b8151158015611c0257506001600160a01b0384163b155b15611c2b57604051639996b31560e01b81526001600160a01b03851660048201526024016107b4565b5080611a95565b805115611c425780518082602001fd5b604051630a12f52160e11b815260040160405180910390fd5b5f60208284031215611c6b575f80fd5b5035919050565b80356001600160a01b0381168114611c88575f80fd5b919050565b5f60208284031215611c9d575f80fd5b611a9582611c72565b5f805f8060808587031215611cb9575f80fd5b84359350611cc960208601611c72565b925060408501359150611cde60608601611c72565b905092959194509250565b5f8060408385031215611cfa575f80fd5b82359150611d0a60208401611c72565b90509250929050565b5f805f60608486031215611d25575f80fd5b83359250611d3560208501611c72565b9150604084013590509250925092565b5f805f805f60a08688031215611d59575f80fd5b85359450611d6960208701611c72565b94979496505050506040830135926060810135926080909101359150565b81518152602080830151610160830191611dab908401826001600160a01b03169052565b5060408301516040830152606083015160608301526080830151608083015260a0830151611de460a08401826001600160a01b03169052565b5060c0830151611dff60c08401826001600160a01b03169052565b5060e0830151611e1360e084018215159052565b506101008381015115159083015261012080840151151590830152610140928301516001600160a01b0316929091019190915290565b5f805f805f8060c08789031215611e5e575f80fd5b86359550611e6e60208801611c72565b945060408701359350611e8360608801611c72565b92506080870135915060a087013590509295509295509295565b634e487b7160e01b5f52601160045260245ffd5b8082018082111561190057611900611e9d565b8181038181111561190057611900611e9d565b5f60208284031215611ee7575f80fd5b5051919050565b808202811582820484141761190057611900611e9d565b5f82611f1f57634e487b7160e01b5f52601260045260245ffd5b500490565b5f60208284031215611f34575f80fd5b81518015158114611a95575f80fd5b5f82515f5b81811015611f625760208186018101518583015201611f48565b505f92019182525091905056fea2646970667358221220fe4668fb36ed549173599d70c85160778236f3027fcce1d6e5b4232ff42a1aac64736f6c63430008140033","linkReferences":{}},"methodIdentifiers":{"BURN_ADDRESS()":"fccc2813","HOUSE_PCT()":"22bf50ea","SAIRI()":"99ca2587","SWAP_ROUTER()":"c6005893","UNISWAP_POOL_FEE()":"b05a4428","USDC()":"89a30271","USDT()":"c54e44eb","WETH()":"ad5c4648","WINNER_PCT()":"8278e8a8","cancelFight(bytes32)":"682b3a98","createFight(bytes32,address,uint256)":"9b48e2e4","createFightFor(bytes32,address,uint256,address)":"545bb371","createFightForWithDeadlines(bytes32,address,uint256,address,uint256,uint256)":"e23ab804","createFightWithDeadlines(bytes32,address,uint256,uint256,uint256)":"9e01854a","emergencyWithdraw(address)":"6ff1c9bc","fights(bytes32)":"91d05666","getFight(bytes32)":"e12dd544","getWithdrawableSurplus(address)":"fe6fe29b","joinFight(bytes32)":"095a6a33","joinFightFor(bytes32,address)":"898b318c","owner()":"8da5cb5b","pause()":"8456cb59","paused()":"5c975abb","renounceOwnership()":"715018a6","reservedTokenBalance(address)":"d24057ae","resolveFight(bytes32,address)":"fe188ed4","resolveFight(bytes32,address,uint256)":"ff7ac5dd","resolver()":"04f3bcec","setResolver(address)":"4e543b26","transferOwnership(address)":"f2fde38b","unpause()":"3f4ba83a"},"id":30}