{"abi":[{"type":"constructor","inputs":[{"name":"resolver_","type":"address","internalType":"address"},{"name":"owner_","type":"address","internalType":"address"}],"stateMutability":"nonpayable"},{"type":"function","name":"BURN_ADDRESS","inputs":[],"outputs":[{"name":"","type":"address","internalType":"address"}],"stateMutability":"view"},{"type":"function","name":"HOUSE_PCT","inputs":[],"outputs":[{"name":"","type":"uint256","internalType":"uint256"}],"stateMutability":"view"},{"type":"function","name":"SAIRI","inputs":[],"outputs":[{"name":"","type":"address","internalType":"address"}],"stateMutability":"view"},{"type":"function","name":"SWAP_ROUTER","inputs":[],"outputs":[{"name":"","type":"address","internalType":"address"}],"stateMutability":"view"},{"type":"function","name":"UNISWAP_POOL_FEE","inputs":[],"outputs":[{"name":"","type":"uint24","internalType":"uint24"}],"stateMutability":"view"},{"type":"function","name":"USDC","inputs":[],"outputs":[{"name":"","type":"address","internalType":"address"}],"stateMutability":"view"},{"type":"function","name":"USDT","inputs":[],"outputs":[{"name":"","type":"address","internalType":"address"}],"stateMutability":"view"},{"type":"function","name":"WETH","inputs":[],"outputs":[{"name":"","type":"address","internalType":"address"}],"stateMutability":"view"},{"type":"function","name":"WINNER_PCT","inputs":[],"outputs":[{"name":"","type":"uint256","internalType":"uint256"}],"stateMutability":"view"},{"type":"function","name":"cancelFight","inputs":[{"name":"fightId","type":"bytes32","internalType":"bytes32"}],"outputs":[],"stateMutability":"nonpayable"},{"type":"function","name":"createFight","inputs":[{"name":"fightId","type":"bytes32","internalType":"bytes32"},{"name":"token","type":"address","internalType":"address"},{"name":"stakeAmount","type":"uint256","internalType":"uint256"}],"outputs":[],"stateMutability":"nonpayable"},{"type":"function","name":"emergencyWithdraw","inputs":[{"name":"token","type":"address","internalType":"address"}],"outputs":[],"stateMutability":"nonpayable"},{"type":"function","name":"fights","inputs":[{"name":"","type":"bytes32","internalType":"bytes32"}],"outputs":[{"name":"fightId","type":"bytes32","internalType":"bytes32"},{"name":"tokenUsed","type":"address","internalType":"address"},{"name":"stakeAmount","type":"uint256","internalType":"uint256"},{"name":"playerA","type":"address","internalType":"address"},{"name":"playerB","type":"address","internalType":"address"},{"name":"playerAStaked","type":"bool","internalType":"bool"},{"name":"playerBStaked","type":"bool","internalType":"bool"},{"name":"resolved","type":"bool","internalType":"bool"},{"name":"winner","type":"address","internalType":"address"}],"stateMutability":"view"},{"type":"function","name":"getFight","inputs":[{"name":"fightId","type":"bytes32","internalType":"bytes32"}],"outputs":[{"name":"fight","type":"tuple","internalType":"struct FaightersEscrow.Fight","components":[{"name":"fightId","type":"bytes32","internalType":"bytes32"},{"name":"tokenUsed","type":"address","internalType":"address"},{"name":"stakeAmount","type":"uint256","internalType":"uint256"},{"name":"playerA","type":"address","internalType":"address"},{"name":"playerB","type":"address","internalType":"address"},{"name":"playerAStaked","type":"bool","internalType":"bool"},{"name":"playerBStaked","type":"bool","internalType":"bool"},{"name":"resolved","type":"bool","internalType":"bool"},{"name":"winner","type":"address","internalType":"address"}]}],"stateMutability":"view"},{"type":"function","name":"joinFight","inputs":[{"name":"fightId","type":"bytes32","internalType":"bytes32"}],"outputs":[],"stateMutability":"nonpayable"},{"type":"function","name":"owner","inputs":[],"outputs":[{"name":"","type":"address","internalType":"address"}],"stateMutability":"view"},{"type":"function","name":"renounceOwnership","inputs":[],"outputs":[],"stateMutability":"nonpayable"},{"type":"function","name":"resolveFight","inputs":[{"name":"fightId","type":"bytes32","internalType":"bytes32"},{"name":"winnerAddress","type":"address","internalType":"address"}],"outputs":[],"stateMutability":"nonpayable"},{"type":"function","name":"resolveFight","inputs":[{"name":"fightId","type":"bytes32","internalType":"bytes32"},{"name":"winnerAddress","type":"address","internalType":"address"},{"name":"minSairiOut","type":"uint256","internalType":"uint256"}],"outputs":[],"stateMutability":"nonpayable"},{"type":"function","name":"resolver","inputs":[],"outputs":[{"name":"","type":"address","internalType":"address"}],"stateMutability":"view"},{"type":"function","name":"setResolver","inputs":[{"name":"newResolver","type":"address","internalType":"address"}],"outputs":[],"stateMutability":"nonpayable"},{"type":"function","name":"transferOwnership","inputs":[{"name":"newOwner","type":"address","internalType":"address"}],"outputs":[],"stateMutability":"nonpayable"},{"type":"event","name":"EmergencyWithdraw","inputs":[{"name":"token","type":"address","indexed":true,"internalType":"address"},{"name":"to","type":"address","indexed":true,"internalType":"address"},{"name":"amount","type":"uint256","indexed":false,"internalType":"uint256"}],"anonymous":false},{"type":"event","name":"FightCancelled","inputs":[{"name":"fightId","type":"bytes32","indexed":true,"internalType":"bytes32"},{"name":"cancelledBy","type":"address","indexed":true,"internalType":"address"}],"anonymous":false},{"type":"event","name":"FightCreated","inputs":[{"name":"fightId","type":"bytes32","indexed":true,"internalType":"bytes32"},{"name":"playerA","type":"address","indexed":true,"internalType":"address"},{"name":"token","type":"address","indexed":true,"internalType":"address"},{"name":"stakeAmount","type":"uint256","indexed":false,"internalType":"uint256"}],"anonymous":false},{"type":"event","name":"FightJoined","inputs":[{"name":"fightId","type":"bytes32","indexed":true,"internalType":"bytes32"},{"name":"playerB","type":"address","indexed":true,"internalType":"address"}],"anonymous":false},{"type":"event","name":"FightResolved","inputs":[{"name":"fightId","type":"bytes32","indexed":true,"internalType":"bytes32"},{"name":"winner","type":"address","indexed":true,"internalType":"address"},{"name":"tokenUsed","type":"address","indexed":true,"internalType":"address"},{"name":"winnerPayout","type":"uint256","indexed":false,"internalType":"uint256"},{"name":"houseCutInput","type":"uint256","indexed":false,"internalType":"uint256"},{"name":"sairiBurned","type":"uint256","indexed":false,"internalType":"uint256"}],"anonymous":false},{"type":"event","name":"OwnershipTransferred","inputs":[{"name":"previousOwner","type":"address","indexed":true,"internalType":"address"},{"name":"newOwner","type":"address","indexed":true,"internalType":"address"}],"anonymous":false},{"type":"event","name":"ResolverUpdated","inputs":[{"name":"previousResolver","type":"address","indexed":true,"internalType":"address"},{"name":"newResolver","type":"address","indexed":true,"internalType":"address"}],"anonymous":false},{"type":"error","name":"AddressEmptyCode","inputs":[{"name":"target","type":"address","internalType":"address"}]},{"type":"error","name":"AddressInsufficientBalance","inputs":[{"name":"account","type":"address","internalType":"address"}]},{"type":"error","name":"AlreadyJoined","inputs":[{"name":"fightId","type":"bytes32","internalType":"bytes32"}]},{"type":"error","name":"CannotJoinOwnFight","inputs":[]},{"type":"error","name":"FailedInnerCall","inputs":[]},{"type":"error","name":"FightAlreadyExists","inputs":[{"name":"fightId","type":"bytes32","internalType":"bytes32"}]},{"type":"error","name":"FightNotFound","inputs":[{"name":"fightId","type":"bytes32","internalType":"bytes32"}]},{"type":"error","name":"FightNotReady","inputs":[{"name":"fightId","type":"bytes32","internalType":"bytes32"}]},{"type":"error","name":"FightResolvedAlready","inputs":[{"name":"fightId","type":"bytes32","internalType":"bytes32"}]},{"type":"error","name":"InvalidFightId","inputs":[]},{"type":"error","name":"InvalidPercentConfig","inputs":[]},{"type":"error","name":"InvalidStakeAmount","inputs":[]},{"type":"error","name":"InvalidWinner","inputs":[{"name":"winner","type":"address","internalType":"address"}]},{"type":"error","name":"MinSairiOutRequired","inputs":[]},{"type":"error","name":"OwnableInvalidOwner","inputs":[{"name":"owner","type":"address","internalType":"address"}]},{"type":"error","name":"OwnableUnauthorizedAccount","inputs":[{"name":"account","type":"address","internalType":"address"}]},{"type":"error","name":"ReentrancyGuardReentrantCall","inputs":[]},{"type":"error","name":"ResolverOnly","inputs":[]},{"type":"error","name":"SafeERC20FailedOperation","inputs":[{"name":"token","type":"address","internalType":"address"}]},{"type":"error","name":"Unauthorized","inputs":[]},{"type":"error","name":"UnsupportedToken","inputs":[{"name":"token","type":"address","internalType":"address"}]},{"type":"error","name":"ZeroAddress","inputs":[]}],"bytecode":{"object":"0x608060405234801562000010575f80fd5b506040516200195e3803806200195e83398101604081905262000033916200015b565b806001600160a01b0381166200006257604051631e4fbdf760e01b81525f600482015260240160405180910390fd5b6200006d81620000f0565b50600180556001600160a01b0382166200009a5760405163d92e233d60e01b815260040160405180910390fd5b620000a8601e604662000191565b606414620000c957604051630cb521c960e01b815260040160405180910390fd5b50600280546001600160a01b0319166001600160a01b0392909216919091179055620001b7565b5f80546001600160a01b038381166001600160a01b0319831681178455604051919092169283917f8be0079c531659141344cd1fd0a4f28419497f9722a3daafe3b4186f6b6457e09190a35050565b80516001600160a01b038116811462000156575f80fd5b919050565b5f80604083850312156200016d575f80fd5b62000178836200013f565b915062000188602084016200013f565b90509250929050565b80820180821115620001b157634e487b7160e01b5f52601160045260245ffd5b92915050565b61179980620001c55f395ff3fe608060405234801561000f575f80fd5b506004361061013d575f3560e01c806399ca2587116100b4578063c600589311610079578063c60058931461034d578063e12dd54414610368578063f2fde38b14610467578063fccc28131461047a578063fe188ed414610483578063ff7ac5dd14610496575f80fd5b806399ca2587146102d95780639b48e2e4146102f4578063ad5c464814610307578063b05a442814610315578063c54e44eb14610332575f80fd5b80636ff1c9bc116101055780636ff1c9bc146101c2578063715018a6146101d55780638278e8a8146101dd57806389a30271146101e55780638da5cb5b1461020057806391d0566614610210575f80fd5b806304f3bcec14610141578063095a6a331461017157806322bf50ea146101865780634e543b261461019c578063682b3a98146101af575b5f80fd5b600254610154906001600160a01b031681565b6040516001600160a01b0390911681526020015b60405180910390f35b61018461017f3660046114e7565b6104a9565b005b61018e601e81565b604051908152602001610168565b6101846101aa366004611519565b610604565b6101846101bd3660046114e7565b610684565b6101846101d0366004611519565b61082f565b61018461092f565b61018e604681565b61015473833589fcd6edb6e08f4c7c32d4f71b54bda0291381565b5f546001600160a01b0316610154565b61028761021e3660046114e7565b600360208190525f918252604090912080546001820154600283015493830154600484015460059094015492946001600160a01b03928316949093918316928181169260ff600160a01b8404811693600160a81b8104821693600160b01b909104909116911689565b60408051998a526001600160a01b0398891660208b015289019690965293861660608801529185166080870152151560a0860152151560c0850152151560e08401521661010082015261012001610168565b61015473de61878b0b21ce395266c44d4d548d1c72a3eb0781565b610184610302366004611532565b610942565b6101546006602160991b0181565b61031e610bb881565b60405162ffffff9091168152602001610168565b61015473fde4c96c8593536e31f229ea8f37b2ada2699bb281565b610154732626664c2603336e57b271c5c0b26f421741e48181565b61045a6103763660046114e7565b60408051610120810182525f80825260208201819052918101829052606081018290526080810182905260a0810182905260c0810182905260e08101829052610100810191909152505f908152600360208181526040928390208351610120810185528154815260018201546001600160a01b039081169382019390935260028201549481019490945291820154811660608401526004820154808216608085015260ff600160a01b82048116151560a0860152600160a81b82048116151560c0860152600160b01b90910416151560e08401526005909101541661010082015290565b6040516101689190611564565b610184610475366004611519565b610c0b565b61015461dead81565b6101846104913660046115fe565b610c45565b6101846104a4366004611532565b610c8f565b6104b1610cd5565b5f818152600360208190526040909120908101546001600160a01b03166104f357604051634f36907760e11b8152600481018390526024015b60405180910390fd5b6004810154600160b01b900460ff16156105235760405163e4f5cb2560e01b8152600481018390526024016104ea565b6004810154600160a81b900460ff16156105535760405163eb362cf960e01b8152600481018390526024016104ea565b60038101546001600160a01b0316330361058057604051638b791dbf60e01b815260040160405180910390fd5b600281015460018201546105a3916001600160a01b039091169033903090610cff565b60048101805460ff60a81b1933908116600161ff0160a01b031990921691909117600160a81b1790915560405183907fd6611b95639cbe27ceb686419e589b7ae1961226f668ed2118ca634678a5c60e905f90a35061060160018055565b50565b61060c610d6c565b6001600160a01b0381166106335760405163d92e233d60e01b815260040160405180910390fd5b600280546001600160a01b038381166001600160a01b0319831681179093556040519116919082907f84b83d2b66cac119ccaaca68b476b0dc5371d5f2fd27f697770a910175fd38b6905f90a35050565b61068c610cd5565b5f818152600360208190526040909120908101546001600160a01b03166106c957604051634f36907760e11b8152600481018390526024016104ea565b6004810154600160b01b900460ff16156106f95760405163e4f5cb2560e01b8152600481018390526024016104ea565b6002546003820154336001600160a01b039283168114925f921614801561072c57506004830154600160a81b900460ff16155b90508115801561073a575080155b15610757576040516282b42960e81b815260040160405180910390fd5b60048301805460ff60b01b1916600160b01b17908190556005840180546001600160a01b031916905560018401546001600160a01b031690600160a01b900460ff16156107c057600384015460028501546107c0916001600160a01b0384811692911690610d98565b6004840154600160a81b900460ff16156107f657600484015460028501546107f6916001600160a01b0384811692911690610d98565b604051339086907fbf5a0814c938c654b0e4bf6ae8d16dffb5b71733990b19e57bb59534c389e5d8905f90a35050505061060160018055565b610837610d6c565b61083f610cd5565b6040516370a0823160e01b81523060048201525f906001600160a01b038316906370a0823190602401602060405180830381865afa158015610883573d5f803e3d5ffd5b505050506040513d601f19601f820116820180604052508101906108a79190611628565b90506108ce6108bd5f546001600160a01b031690565b6001600160a01b0384169083610d98565b5f546001600160a01b03166001600160a01b0316826001600160a01b03167ff24ef89f38eadc1bde50701ad6e4d6d11a2dc24f7cf834a486991f38833285048360405161091d91815260200190565b60405180910390a35061060160018055565b610937610d6c565b6109405f610dc9565b565b61094a610cd5565b826109685760405163bfc270c960e01b815260040160405180910390fd5b61097182610e18565b61099957604051635f8b555b60e11b81526001600160a01b03831660048201526024016104ea565b805f036109b957604051630103be3b60e21b815260040160405180910390fd5b5f838152600360208190526040909120908101546001600160a01b0316156109f757604051630b5eae5d60e31b8152600481018590526024016104ea565b610a0c6001600160a01b038416333085610cff565b604051806101200160405280858152602001846001600160a01b03168152602001838152602001336001600160a01b031681526020015f6001600160a01b031681526020016001151581526020015f151581526020015f151581526020015f6001600160a01b031681525060035f8681526020019081526020015f205f820151815f01556020820151816001015f6101000a8154816001600160a01b0302191690836001600160a01b03160217905550604082015181600201556060820151816003015f6101000a8154816001600160a01b0302191690836001600160a01b031602179055506080820151816004015f6101000a8154816001600160a01b0302191690836001600160a01b0316021790555060a08201518160040160146101000a81548160ff02191690831515021790555060c08201518160040160156101000a81548160ff02191690831515021790555060e08201518160040160166101000a81548160ff021916908315150217905550610100820151816005015f6101000a8154816001600160a01b0302191690836001600160a01b03160217905550905050826001600160a01b0316336001600160a01b0316857f3da64c852b707e38e842519977f32c8c2c9dc3860fefb03519e361f73a245b9685604051610bf491815260200190565b60405180910390a450610c0660018055565b505050565b610c13610d6c565b6001600160a01b038116610c3c57604051631e4fbdf760e01b81525f60048201526024016104ea565b61060181610dc9565b610c4d610cd5565b6002546001600160a01b03163314610c775760405162f6250b60e81b815260040160405180910390fd5b610c8282825f610ea7565b610c8b60018055565b5050565b610c97610cd5565b6002546001600160a01b03163314610cc15760405162f6250b60e81b815260040160405180910390fd5b610ccc838383610ea7565b610c0660018055565b600260015403610cf857604051633ee5aeb560e01b815260040160405180910390fd5b6002600155565b6040516001600160a01b038481166024830152838116604483015260648201839052610d669186918216906323b872dd906084015b604051602081830303815290604052915060e01b6020820180516001600160e01b038381831617835250505050611224565b50505050565b5f546001600160a01b031633146109405760405163118cdaa760e01b81523360048201526024016104ea565b6040516001600160a01b03838116602483015260448201839052610c0691859182169063a9059cbb90606401610d34565b5f80546001600160a01b038381166001600160a01b0319831681178455604051919092169283917f8be0079c531659141344cd1fd0a4f28419497f9722a3daafe3b4186f6b6457e09190a35050565b5f6001600160a01b0382166006602160991b011480610e5357506001600160a01b03821673833589fcd6edb6e08f4c7c32d4f71b54bda02913145b80610e7a57506001600160a01b03821673fde4c96c8593536e31f229ea8f37b2ada2699bb2145b80610ea157506001600160a01b03821673de61878b0b21ce395266c44d4d548d1c72a3eb07145b92915050565b5f838152600360208190526040909120908101546001600160a01b0316610ee457604051634f36907760e11b8152600481018590526024016104ea565b6004810154600160b01b900460ff1615610f145760405163e4f5cb2560e01b8152600481018590526024016104ea565b6004810154600160a01b900460ff161580610f3b57506004810154600160a81b900460ff16155b15610f5c57604051631eea52db60e31b8152600481018590526024016104ea565b60038101546001600160a01b03848116911614801590610f8c575060048101546001600160a01b03848116911614155b15610fb5576040516312967cad60e31b81526001600160a01b03841660048201526024016104ea565b5f81600201546002610fc79190611653565b90505f6064610fd7604684611653565b610fe1919061166a565b90505f610fee8284611689565b60048501805460ff60b01b1916600160b01b1790556005850180546001600160a01b03808a166001600160a01b03199092169190911790915560018601549192501661103b818885610d98565b60018501545f906001600160a01b031673de61878b0b21ce395266c44d4d548d1c72a3eb06190161108357508161107e6001600160a01b03831661dead83610d98565b6111c2565b865f036110a35760405163381425e560e01b815260040160405180910390fd5b6110cb6001600160a01b038316732626664c2603336e57b271c5c0b26f421741e48185611285565b604080516101008101825260018801546001600160a01b0316815273de61878b0b21ce395266c44d4d548d1c72a3eb076020820152610bb88183015230606082015242608082015260a0810185905260c081018990525f60e0820152905163414bf38960e01b8152732626664c2603336e57b271c5c0b26f421741e4819063414bf3899061115d90849060040161169c565b6020604051808303815f875af1158015611179573d5f803e3d5ffd5b505050506040513d601f19601f8201168201806040525081019061119d9190611628565b91506111c073de61878b0b21ce395266c44d4d548d1c72a3eb0761dead84610d98565b505b600186015460408051868152602081018690529081018390526001600160a01b03918216918a16908b907f474befbea7a499c975feb76e94d59d7f1f356ad469601a43578ed85d09237c949060600160405180910390a4505050505050505050565b5f6112386001600160a01b03841683611314565b905080515f1415801561125c57508080602001905181019061125a9190611718565b155b15610c0657604051635274afe760e01b81526001600160a01b03841660048201526024016104ea565b604080516001600160a01b038416602482015260448082018490528251808303909101815260649091019091526020810180516001600160e01b031663095ea7b360e01b1790526112d68482611328565b610d66576040516001600160a01b0384811660248301525f604483015261130a91869182169063095ea7b390606401610d34565b610d668482611224565b606061132183835f6113c9565b9392505050565b5f805f846001600160a01b0316846040516113439190611737565b5f604051808303815f865af19150503d805f811461137c576040519150601f19603f3d011682016040523d82523d5f602084013e611381565b606091505b50915091508180156113ab5750805115806113ab5750808060200190518101906113ab9190611718565b80156113c057505f856001600160a01b03163b115b95945050505050565b6060814710156113ee5760405163cd78605960e01b81523060048201526024016104ea565b5f80856001600160a01b031684866040516114099190611737565b5f6040518083038185875af1925050503d805f8114611443576040519150601f19603f3d011682016040523d82523d5f602084013e611448565b606091505b5091509150611458868383611462565b9695505050505050565b60608261147757611472826114be565b611321565b815115801561148e57506001600160a01b0384163b155b156114b757604051639996b31560e01b81526001600160a01b03851660048201526024016104ea565b5080611321565b8051156114ce5780518082602001fd5b604051630a12f52160e11b815260040160405180910390fd5b5f602082840312156114f7575f80fd5b5035919050565b80356001600160a01b0381168114611514575f80fd5b919050565b5f60208284031215611529575f80fd5b611321826114fe565b5f805f60608486031215611544575f80fd5b83359250611554602085016114fe565b9150604084013590509250925092565b815181526020808301516001600160a01b039081169183019190915260408084015190830152606080840151821690830152608080840151918216908301526101208201905060a08301516115bd60a084018215159052565b5060c08301516115d160c084018215159052565b5060e08301516115e560e084018215159052565b50610100928301516001600160a01b0316919092015290565b5f806040838503121561160f575f80fd5b8235915061161f602084016114fe565b90509250929050565b5f60208284031215611638575f80fd5b5051919050565b634e487b7160e01b5f52601160045260245ffd5b8082028115828204841417610ea157610ea161163f565b5f8261168457634e487b7160e01b5f52601260045260245ffd5b500490565b81810381811115610ea157610ea161163f565b5f6101008201905060018060a01b0380845116835280602085015116602084015262ffffff6040850151166040840152806060850151166060840152506080830151608083015260a083015160a083015260c083015160c083015260e083015161171160e08401826001600160a01b03169052565b5092915050565b5f60208284031215611728575f80fd5b81518015158114611321575f80fd5b5f82515f5b81811015611756576020818601810151858301520161173c565b505f92019182525091905056fea2646970667358221220668ab8ac9144b3dfecdb99b7e1c8c4643f5447d3c4f7c027b9e95c1c8c709d2b64736f6c63430008140033","linkReferences":{}},"methodIdentifiers":{"BURN_ADDRESS()":"fccc2813","HOUSE_PCT()":"22bf50ea","SAIRI()":"99ca2587","SWAP_ROUTER()":"c6005893","UNISWAP_POOL_FEE()":"b05a4428","USDC()":"89a30271","USDT()":"c54e44eb","WETH()":"ad5c4648","WINNER_PCT()":"8278e8a8","cancelFight(bytes32)":"682b3a98","createFight(bytes32,address,uint256)":"9b48e2e4","emergencyWithdraw(address)":"6ff1c9bc","fights(bytes32)":"91d05666","getFight(bytes32)":"e12dd544","joinFight(bytes32)":"095a6a33","owner()":"8da5cb5b","renounceOwnership()":"715018a6","resolveFight(bytes32,address)":"fe188ed4","resolveFight(bytes32,address,uint256)":"ff7ac5dd","resolver()":"04f3bcec","setResolver(address)":"4e543b26","transferOwnership(address)":"f2fde38b"},"id":29}