{"abi":[{"type":"constructor","inputs":[{"name":"resolver_","type":"address","internalType":"address"},{"name":"owner_","type":"address","internalType":"address"}],"stateMutability":"nonpayable"},{"type":"function","name":"BURN_ADDRESS","inputs":[],"outputs":[{"name":"","type":"address","internalType":"address"}],"stateMutability":"view"},{"type":"function","name":"HOUSE_PCT","inputs":[],"outputs":[{"name":"","type":"uint256","internalType":"uint256"}],"stateMutability":"view"},{"type":"function","name":"SAIRI","inputs":[],"outputs":[{"name":"","type":"address","internalType":"address"}],"stateMutability":"view"},{"type":"function","name":"SWAP_ROUTER","inputs":[],"outputs":[{"name":"","type":"address","internalType":"address"}],"stateMutability":"view"},{"type":"function","name":"UNISWAP_POOL_FEE","inputs":[],"outputs":[{"name":"","type":"uint24","internalType":"uint24"}],"stateMutability":"view"},{"type":"function","name":"USDC","inputs":[],"outputs":[{"name":"","type":"address","internalType":"address"}],"stateMutability":"view"},{"type":"function","name":"USDT","inputs":[],"outputs":[{"name":"","type":"address","internalType":"address"}],"stateMutability":"view"},{"type":"function","name":"WETH","inputs":[],"outputs":[{"name":"","type":"address","internalType":"address"}],"stateMutability":"view"},{"type":"function","name":"WINNER_PCT","inputs":[],"outputs":[{"name":"","type":"uint256","internalType":"uint256"}],"stateMutability":"view"},{"type":"function","name":"cancelFight","inputs":[{"name":"fightId","type":"bytes32","internalType":"bytes32"}],"outputs":[],"stateMutability":"nonpayable"},{"type":"function","name":"createFight","inputs":[{"name":"fightId","type":"bytes32","internalType":"bytes32"},{"name":"token","type":"address","internalType":"address"},{"name":"stakeAmount","type":"uint256","internalType":"uint256"}],"outputs":[],"stateMutability":"nonpayable"},{"type":"function","name":"createFightFor","inputs":[{"name":"fightId","type":"bytes32","internalType":"bytes32"},{"name":"token","type":"address","internalType":"address"},{"name":"stakeAmount","type":"uint256","internalType":"uint256"},{"name":"playerA","type":"address","internalType":"address"}],"outputs":[],"stateMutability":"nonpayable"},{"type":"function","name":"emergencyWithdraw","inputs":[{"name":"token","type":"address","internalType":"address"}],"outputs":[],"stateMutability":"nonpayable"},{"type":"function","name":"fights","inputs":[{"name":"","type":"bytes32","internalType":"bytes32"}],"outputs":[{"name":"fightId","type":"bytes32","internalType":"bytes32"},{"name":"tokenUsed","type":"address","internalType":"address"},{"name":"stakeAmount","type":"uint256","internalType":"uint256"},{"name":"playerA","type":"address","internalType":"address"},{"name":"playerB","type":"address","internalType":"address"},{"name":"playerAStaked","type":"bool","internalType":"bool"},{"name":"playerBStaked","type":"bool","internalType":"bool"},{"name":"resolved","type":"bool","internalType":"bool"},{"name":"winner","type":"address","internalType":"address"}],"stateMutability":"view"},{"type":"function","name":"getFight","inputs":[{"name":"fightId","type":"bytes32","internalType":"bytes32"}],"outputs":[{"name":"fight","type":"tuple","internalType":"struct FaightersEscrow.Fight","components":[{"name":"fightId","type":"bytes32","internalType":"bytes32"},{"name":"tokenUsed","type":"address","internalType":"address"},{"name":"stakeAmount","type":"uint256","internalType":"uint256"},{"name":"playerA","type":"address","internalType":"address"},{"name":"playerB","type":"address","internalType":"address"},{"name":"playerAStaked","type":"bool","internalType":"bool"},{"name":"playerBStaked","type":"bool","internalType":"bool"},{"name":"resolved","type":"bool","internalType":"bool"},{"name":"winner","type":"address","internalType":"address"}]}],"stateMutability":"view"},{"type":"function","name":"getWithdrawableSurplus","inputs":[{"name":"token","type":"address","internalType":"address"}],"outputs":[{"name":"amount","type":"uint256","internalType":"uint256"}],"stateMutability":"view"},{"type":"function","name":"joinFight","inputs":[{"name":"fightId","type":"bytes32","internalType":"bytes32"}],"outputs":[],"stateMutability":"nonpayable"},{"type":"function","name":"joinFightFor","inputs":[{"name":"fightId","type":"bytes32","internalType":"bytes32"},{"name":"playerB","type":"address","internalType":"address"}],"outputs":[],"stateMutability":"nonpayable"},{"type":"function","name":"owner","inputs":[],"outputs":[{"name":"","type":"address","internalType":"address"}],"stateMutability":"view"},{"type":"function","name":"renounceOwnership","inputs":[],"outputs":[],"stateMutability":"nonpayable"},{"type":"function","name":"reservedTokenBalance","inputs":[{"name":"","type":"address","internalType":"address"}],"outputs":[{"name":"","type":"uint256","internalType":"uint256"}],"stateMutability":"view"},{"type":"function","name":"resolveFight","inputs":[{"name":"fightId","type":"bytes32","internalType":"bytes32"},{"name":"winnerAddress","type":"address","internalType":"address"}],"outputs":[],"stateMutability":"nonpayable"},{"type":"function","name":"resolveFight","inputs":[{"name":"fightId","type":"bytes32","internalType":"bytes32"},{"name":"winnerAddress","type":"address","internalType":"address"},{"name":"minSairiOut","type":"uint256","internalType":"uint256"}],"outputs":[],"stateMutability":"nonpayable"},{"type":"function","name":"resolver","inputs":[],"outputs":[{"name":"","type":"address","internalType":"address"}],"stateMutability":"view"},{"type":"function","name":"setResolver","inputs":[{"name":"newResolver","type":"address","internalType":"address"}],"outputs":[],"stateMutability":"nonpayable"},{"type":"function","name":"transferOwnership","inputs":[{"name":"newOwner","type":"address","internalType":"address"}],"outputs":[],"stateMutability":"nonpayable"},{"type":"event","name":"EmergencyWithdraw","inputs":[{"name":"token","type":"address","indexed":true,"internalType":"address"},{"name":"to","type":"address","indexed":true,"internalType":"address"},{"name":"amount","type":"uint256","indexed":false,"internalType":"uint256"}],"anonymous":false},{"type":"event","name":"FightCancelled","inputs":[{"name":"fightId","type":"bytes32","indexed":true,"internalType":"bytes32"},{"name":"cancelledBy","type":"address","indexed":true,"internalType":"address"}],"anonymous":false},{"type":"event","name":"FightCreated","inputs":[{"name":"fightId","type":"bytes32","indexed":true,"internalType":"bytes32"},{"name":"playerA","type":"address","indexed":true,"internalType":"address"},{"name":"token","type":"address","indexed":true,"internalType":"address"},{"name":"stakeAmount","type":"uint256","indexed":false,"internalType":"uint256"}],"anonymous":false},{"type":"event","name":"FightJoined","inputs":[{"name":"fightId","type":"bytes32","indexed":true,"internalType":"bytes32"},{"name":"playerB","type":"address","indexed":true,"internalType":"address"}],"anonymous":false},{"type":"event","name":"FightResolved","inputs":[{"name":"fightId","type":"bytes32","indexed":true,"internalType":"bytes32"},{"name":"winner","type":"address","indexed":true,"internalType":"address"},{"name":"tokenUsed","type":"address","indexed":true,"internalType":"address"},{"name":"winnerPayout","type":"uint256","indexed":false,"internalType":"uint256"},{"name":"houseCutInput","type":"uint256","indexed":false,"internalType":"uint256"},{"name":"sairiBurned","type":"uint256","indexed":false,"internalType":"uint256"}],"anonymous":false},{"type":"event","name":"OwnershipTransferred","inputs":[{"name":"previousOwner","type":"address","indexed":true,"internalType":"address"},{"name":"newOwner","type":"address","indexed":true,"internalType":"address"}],"anonymous":false},{"type":"event","name":"ResolverUpdated","inputs":[{"name":"previousResolver","type":"address","indexed":true,"internalType":"address"},{"name":"newResolver","type":"address","indexed":true,"internalType":"address"}],"anonymous":false},{"type":"error","name":"AddressEmptyCode","inputs":[{"name":"target","type":"address","internalType":"address"}]},{"type":"error","name":"AddressInsufficientBalance","inputs":[{"name":"account","type":"address","internalType":"address"}]},{"type":"error","name":"AlreadyJoined","inputs":[{"name":"fightId","type":"bytes32","internalType":"bytes32"}]},{"type":"error","name":"CannotJoinOwnFight","inputs":[]},{"type":"error","name":"FailedInnerCall","inputs":[]},{"type":"error","name":"FightAlreadyExists","inputs":[{"name":"fightId","type":"bytes32","internalType":"bytes32"}]},{"type":"error","name":"FightNotFound","inputs":[{"name":"fightId","type":"bytes32","internalType":"bytes32"}]},{"type":"error","name":"FightNotReady","inputs":[{"name":"fightId","type":"bytes32","internalType":"bytes32"}]},{"type":"error","name":"FightResolvedAlready","inputs":[{"name":"fightId","type":"bytes32","internalType":"bytes32"}]},{"type":"error","name":"InvalidFightId","inputs":[]},{"type":"error","name":"InvalidPercentConfig","inputs":[]},{"type":"error","name":"InvalidStakeAmount","inputs":[]},{"type":"error","name":"InvalidWinner","inputs":[{"name":"winner","type":"address","internalType":"address"}]},{"type":"error","name":"MinSairiOutRequired","inputs":[]},{"type":"error","name":"NoSurplusAvailable","inputs":[{"name":"token","type":"address","internalType":"address"}]},{"type":"error","name":"OwnableInvalidOwner","inputs":[{"name":"owner","type":"address","internalType":"address"}]},{"type":"error","name":"OwnableUnauthorizedAccount","inputs":[{"name":"account","type":"address","internalType":"address"}]},{"type":"error","name":"ReentrancyGuardReentrantCall","inputs":[]},{"type":"error","name":"ResolverOnly","inputs":[]},{"type":"error","name":"SafeERC20FailedOperation","inputs":[{"name":"token","type":"address","internalType":"address"}]},{"type":"error","name":"Unauthorized","inputs":[]},{"type":"error","name":"UnsupportedToken","inputs":[{"name":"token","type":"address","internalType":"address"}]},{"type":"error","name":"ZeroAddress","inputs":[]}],"bytecode":{"object":"0x608060405234801562000010575f80fd5b5060405162001c8838038062001c8883398101604081905262000033916200015b565b806001600160a01b0381166200006257604051631e4fbdf760e01b81525f600482015260240160405180910390fd5b6200006d81620000f0565b50600180556001600160a01b0382166200009a5760405163d92e233d60e01b815260040160405180910390fd5b620000a8601e604662000191565b606414620000c957604051630cb521c960e01b815260040160405180910390fd5b50600280546001600160a01b0319166001600160a01b0392909216919091179055620001b7565b5f80546001600160a01b038381166001600160a01b0319831681178455604051919092169283917f8be0079c531659141344cd1fd0a4f28419497f9722a3daafe3b4186f6b6457e09190a35050565b80516001600160a01b038116811462000156575f80fd5b919050565b5f80604083850312156200016d575f80fd5b62000178836200013f565b915062000188602084016200013f565b90509250929050565b80820180821115620001b157634e487b7160e01b5f52601160045260245ffd5b92915050565b611ac380620001c55f395ff3fe608060405234801561000f575f80fd5b5060043610610187575f3560e01c806399ca2587116100d9578063d24057ae11610093578063fccc28131161006e578063fccc281314610509578063fe188ed414610512578063fe6fe29b14610525578063ff7ac5dd14610538575f80fd5b8063d24057ae146103d8578063e12dd544146103f7578063f2fde38b146104f6575f80fd5b806399ca2587146103495780639b48e2e414610364578063ad5c464814610377578063b05a442814610385578063c54e44eb146103a2578063c6005893146103bd575f80fd5b80636ff1c9bc11610144578063898b318c1161011f578063898b318c1461024257806389a30271146102555780638da5cb5b1461027057806391d0566614610280575f80fd5b80636ff1c9bc1461021f578063715018a6146102325780638278e8a81461023a575f80fd5b806304f3bcec1461018b578063095a6a33146101bb57806322bf50ea146101d05780634e543b26146101e6578063545bb371146101f9578063682b3a981461020c575b5f80fd5b60025461019e906001600160a01b031681565b6040516001600160a01b0390911681526020015b60405180910390f35b6101ce6101c9366004611837565b61054b565b005b6101d8601e81565b6040519081526020016101b2565b6101ce6101f4366004611869565b610569565b6101ce610207366004611882565b6105e9565b6101ce61021a366004611837565b61065d565b6101ce61022d366004611869565b61088a565b6101ce610957565b6101d8604681565b6101ce6102503660046118c5565b61096a565b61019e73833589fcd6edb6e08f4c7c32d4f71b54bda0291381565b5f546001600160a01b031661019e565b6102f761028e366004611837565b600460208190525f918252604090912080546001820154600283015460038401549484015460059094015492946001600160a01b03928316949193908316928281169260ff600160a01b8204811693600160a81b8304821693600160b01b909304909116911689565b60408051998a526001600160a01b0398891660208b015289019690965293861660608801529185166080870152151560a0860152151560c0850152151560e084015216610100820152610120016101b2565b61019e73de61878b0b21ce395266c44d4d548d1c72a3eb0781565b6101ce6103723660046118ef565b6109da565b61019e6006602160991b0181565b61038e610bb881565b60405162ffffff90911681526020016101b2565b61019e73fde4c96c8593536e31f229ea8f37b2ada2699bb281565b61019e732626664c2603336e57b271c5c0b26f421741e48181565b6101d86103e6366004611869565b60036020525f908152604090205481565b6104e9610405366004611837565b60408051610120810182525f80825260208201819052918101829052606081018290526080810182905260a0810182905260c0810182905260e08101829052610100810191909152505f908152600460208181526040928390208351610120810185528154815260018201546001600160a01b039081169382019390935260028201549481019490945260038101548216606085015291820154808216608085015260ff600160a01b82048116151560a0860152600160a81b82048116151560c0860152600160b01b90910416151560e08401526005909101541661010082015290565b6040516101b29190611921565b6101ce610504366004611869565b6109fc565b61019e61dead81565b6101ce6105203660046118c5565b610a36565b6101d8610533366004611869565b610a73565b6101ce6105463660046118ef565b610b1b565b610553610b58565b61055d8133610b82565b61056660018055565b50565b610571610cfc565b6001600160a01b0381166105985760405163d92e233d60e01b815260040160405180910390fd5b600280546001600160a01b038381166001600160a01b0319831681179093556040519116919082907f84b83d2b66cac119ccaaca68b476b0dc5371d5f2fd27f697770a910175fd38b6905f90a35050565b6105f1610b58565b6002546001600160a01b0316331461061b5760405162f6250b60e81b815260040160405180910390fd5b6001600160a01b0381166106425760405163d92e233d60e01b815260040160405180910390fd5b61064e84848484610d28565b61065760018055565b50505050565b610665610b58565b5f81815260046020526040902060038101546001600160a01b03166106a557604051634f36907760e11b8152600481018390526024015b60405180910390fd5b6004810154600160b01b900460ff16156106d55760405163e4f5cb2560e01b81526004810183905260240161069c565b6002546003820154336001600160a01b039283168114925f921614801561070857506004830154600160a81b900460ff16155b905081158015610716575080155b15610733576040516282b42960e81b815260040160405180910390fd5b60048301545f90600160a01b900460ff161561075b57600284015461075890826119cf565b90505b6004840154600160a81b900460ff161561078157600284015461077e90826119cf565b90505b60018401546001600160a01b03165f90815260036020526040812080548392906107ac9084906119e2565b909155505060048401805460ff60b01b1916600160b01b17908190556005850180546001600160a01b031916905560018501546001600160a01b031690600160a01b900460ff161561081a576003850154600286015461081a916001600160a01b038481169291169061100d565b6004850154600160a81b900460ff16156108505760048501546002860154610850916001600160a01b038481169291169061100d565b604051339087907fbf5a0814c938c654b0e4bf6ae8d16dffb5b71733990b19e57bb59534c389e5d8905f90a3505050505061056660018055565b610892610cfc565b61089a610b58565b5f6108a482610a73565b9050805f036108d157604051635b8d44b960e11b81526001600160a01b038316600482015260240161069c565b6108f66108e55f546001600160a01b031690565b6001600160a01b038416908361100d565b5f546001600160a01b03166001600160a01b0316826001600160a01b03167ff24ef89f38eadc1bde50701ad6e4d6d11a2dc24f7cf834a486991f38833285048360405161094591815260200190565b60405180910390a35061056660018055565b61095f610cfc565b6109685f61106c565b565b610972610b58565b6002546001600160a01b0316331461099c5760405162f6250b60e81b815260040160405180910390fd5b6001600160a01b0381166109c35760405163d92e233d60e01b815260040160405180910390fd5b6109cd8282610b82565b6109d660018055565b5050565b6109e2610b58565b6109ee83838333610d28565b6109f760018055565b505050565b610a04610cfc565b6001600160a01b038116610a2d57604051631e4fbdf760e01b81525f600482015260240161069c565b6105668161106c565b610a3e610b58565b6002546001600160a01b03163314610a685760405162f6250b60e81b815260040160405180910390fd5b6109cd82825f6110bb565b6040516370a0823160e01b81523060048201525f9081906001600160a01b038416906370a0823190602401602060405180830381865afa158015610ab9573d5f803e3d5ffd5b505050506040513d601f19601f82011682018060405250810190610add91906119f5565b6001600160a01b0384165f9081526003602052604090205490915080821115610b1257610b0a81836119e2565b949350505050565b505f9392505050565b610b23610b58565b6002546001600160a01b03163314610b4d5760405162f6250b60e81b815260040160405180910390fd5b6109ee8383836110bb565b600260015403610b7b57604051633ee5aeb560e01b815260040160405180910390fd5b6002600155565b5f82815260046020526040902060038101546001600160a01b0316610bbd57604051634f36907760e11b81526004810184905260240161069c565b6004810154600160b01b900460ff1615610bed5760405163e4f5cb2560e01b81526004810184905260240161069c565b6004810154600160a81b900460ff1615610c1d5760405163eb362cf960e01b81526004810184905260240161069c565b60038101546001600160a01b0390811690831603610c4e57604051638b791dbf60e01b815260040160405180910390fd5b60028101546001820154610c71916001600160a01b0390911690849030906114ac565b600281015460018201546001600160a01b03165f9081526003602052604081208054909190610ca19084906119cf565b9091555050600481018054600161ff0160a01b0319166001600160a01b038416908117600160a81b1790915560405184907fd6611b95639cbe27ceb686419e589b7ae1961226f668ed2118ca634678a5c60e905f90a3505050565b5f546001600160a01b031633146109685760405163118cdaa760e01b815233600482015260240161069c565b83610d465760405163bfc270c960e01b815260040160405180910390fd5b610d4f836114e5565b610d7757604051635f8b555b60e11b81526001600160a01b038416600482015260240161069c565b815f03610d9757604051630103be3b60e21b815260040160405180910390fd5b5f84815260046020526040902060038101546001600160a01b031615610dd357604051630b5eae5d60e31b81526004810186905260240161069c565b610de86001600160a01b0385168330866114ac565b6001600160a01b0384165f9081526003602052604081208054859290610e0f9084906119cf565b92505081905550604051806101200160405280868152602001856001600160a01b03168152602001848152602001836001600160a01b031681526020015f6001600160a01b031681526020016001151581526020015f151581526020015f151581526020015f6001600160a01b031681525060045f8781526020019081526020015f205f820151815f01556020820151816001015f6101000a8154816001600160a01b0302191690836001600160a01b03160217905550604082015181600201556060820151816003015f6101000a8154816001600160a01b0302191690836001600160a01b031602179055506080820151816004015f6101000a8154816001600160a01b0302191690836001600160a01b0316021790555060a08201518160040160146101000a81548160ff02191690831515021790555060c08201518160040160156101000a81548160ff02191690831515021790555060e08201518160040160166101000a81548160ff021916908315150217905550610100820151816005015f6101000a8154816001600160a01b0302191690836001600160a01b03160217905550905050836001600160a01b0316826001600160a01b0316867f3da64c852b707e38e842519977f32c8c2c9dc3860fefb03519e361f73a245b9686604051610ffe91815260200190565b60405180910390a45050505050565b6040516001600160a01b038381166024830152604482018390526109f791859182169063a9059cbb906064015b604051602081830303815290604052915060e01b6020820180516001600160e01b038381831617835250505050611574565b5f80546001600160a01b038381166001600160a01b0319831681178455604051919092169283917f8be0079c531659141344cd1fd0a4f28419497f9722a3daafe3b4186f6b6457e09190a35050565b5f83815260046020526040902060038101546001600160a01b03166110f657604051634f36907760e11b81526004810185905260240161069c565b6004810154600160b01b900460ff16156111265760405163e4f5cb2560e01b81526004810185905260240161069c565b6004810154600160a01b900460ff16158061114d57506004810154600160a81b900460ff16155b1561116e57604051631eea52db60e31b81526004810185905260240161069c565b60038101546001600160a01b0384811691161480159061119e575060048101546001600160a01b03848116911614155b156111c7576040516312967cad60e31b81526001600160a01b038416600482015260240161069c565b5f816002015460026111d99190611a0c565b90505f60646111e9604684611a0c565b6111f39190611a23565b90505f61120082846119e2565b60018501546001600160a01b03165f908152600360205260408120805492935085929091906112309084906119e2565b909155505060048401805460ff60b01b1916600160b01b1790556005840180546001600160a01b038089166001600160a01b03199092169190911790915560018501541661127f81888561100d565b60018501545f906001600160a01b031673de61878b0b21ce395266c44d4d548d1c72a3eb0619016112c75750816112c26001600160a01b03831661dead8361100d565b61144a565b865f036112e75760405163381425e560e01b815260040160405180910390fd5b61130f6001600160a01b038316732626664c2603336e57b271c5c0b26f421741e481856115d5565b604080516101008101825260018801546001600160a01b03908116825273de61878b0b21ce395266c44d4d548d1c72a3eb0760208301908152610bb88385019081523060608501908152426080860190815260a086018a815260c087018f81525f60e08901908152985163414bf38960e01b8152885188166004820152955187166024870152935162ffffff1660448601529151851660648501525160848401525160a48301525160c482015292511660e483015290732626664c2603336e57b271c5c0b26f421741e4819063414bf38990610104016020604051808303815f875af1158015611401573d5f803e3d5ffd5b505050506040513d601f19601f8201168201806040525081019061142591906119f5565b915061144873de61878b0b21ce395266c44d4d548d1c72a3eb0761dead8461100d565b505b600186015460408051868152602081018690529081018390526001600160a01b03918216918a16908b907f474befbea7a499c975feb76e94d59d7f1f356ad469601a43578ed85d09237c949060600160405180910390a4505050505050505050565b6040516001600160a01b0384811660248301528381166044830152606482018390526106579186918216906323b872dd9060840161103a565b5f6001600160a01b0382166006602160991b01148061152057506001600160a01b03821673833589fcd6edb6e08f4c7c32d4f71b54bda02913145b8061154757506001600160a01b03821673fde4c96c8593536e31f229ea8f37b2ada2699bb2145b8061156e57506001600160a01b03821673de61878b0b21ce395266c44d4d548d1c72a3eb07145b92915050565b5f6115886001600160a01b03841683611664565b905080515f141580156115ac5750808060200190518101906115aa9190611a42565b155b156109f757604051635274afe760e01b81526001600160a01b038416600482015260240161069c565b604080516001600160a01b038416602482015260448082018490528251808303909101815260649091019091526020810180516001600160e01b031663095ea7b360e01b1790526116268482611678565b610657576040516001600160a01b0384811660248301525f604483015261165a91869182169063095ea7b39060640161103a565b6106578482611574565b606061167183835f611719565b9392505050565b5f805f846001600160a01b0316846040516116939190611a61565b5f604051808303815f865af19150503d805f81146116cc576040519150601f19603f3d011682016040523d82523d5f602084013e6116d1565b606091505b50915091508180156116fb5750805115806116fb5750808060200190518101906116fb9190611a42565b801561171057505f856001600160a01b03163b115b95945050505050565b60608147101561173e5760405163cd78605960e01b815230600482015260240161069c565b5f80856001600160a01b031684866040516117599190611a61565b5f6040518083038185875af1925050503d805f8114611793576040519150601f19603f3d011682016040523d82523d5f602084013e611798565b606091505b50915091506117a88683836117b2565b9695505050505050565b6060826117c7576117c28261180e565b611671565b81511580156117de57506001600160a01b0384163b155b1561180757604051639996b31560e01b81526001600160a01b038516600482015260240161069c565b5080611671565b80511561181e5780518082602001fd5b604051630a12f52160e11b815260040160405180910390fd5b5f60208284031215611847575f80fd5b5035919050565b80356001600160a01b0381168114611864575f80fd5b919050565b5f60208284031215611879575f80fd5b6116718261184e565b5f805f8060808587031215611895575f80fd5b843593506118a56020860161184e565b9250604085013591506118ba6060860161184e565b905092959194509250565b5f80604083850312156118d6575f80fd5b823591506118e66020840161184e565b90509250929050565b5f805f60608486031215611901575f80fd5b833592506119116020850161184e565b9150604084013590509250925092565b815181526020808301516001600160a01b039081169183019190915260408084015190830152606080840151821690830152608080840151918216908301526101208201905060a083015161197a60a084018215159052565b5060c083015161198e60c084018215159052565b5060e08301516119a260e084018215159052565b50610100928301516001600160a01b0316919092015290565b634e487b7160e01b5f52601160045260245ffd5b8082018082111561156e5761156e6119bb565b8181038181111561156e5761156e6119bb565b5f60208284031215611a05575f80fd5b5051919050565b808202811582820484141761156e5761156e6119bb565b5f82611a3d57634e487b7160e01b5f52601260045260245ffd5b500490565b5f60208284031215611a52575f80fd5b81518015158114611671575f80fd5b5f82515f5b81811015611a805760208186018101518583015201611a66565b505f92019182525091905056fea264697066735822122067d164c8fdf17b1225b4fe7cfa9911193a5e02b8ff50a17612ed76e824fac09664736f6c63430008140033","linkReferences":{}},"methodIdentifiers":{"BURN_ADDRESS()":"fccc2813","HOUSE_PCT()":"22bf50ea","SAIRI()":"99ca2587","SWAP_ROUTER()":"c6005893","UNISWAP_POOL_FEE()":"b05a4428","USDC()":"89a30271","USDT()":"c54e44eb","WETH()":"ad5c4648","WINNER_PCT()":"8278e8a8","cancelFight(bytes32)":"682b3a98","createFight(bytes32,address,uint256)":"9b48e2e4","createFightFor(bytes32,address,uint256,address)":"545bb371","emergencyWithdraw(address)":"6ff1c9bc","fights(bytes32)":"91d05666","getFight(bytes32)":"e12dd544","getWithdrawableSurplus(address)":"fe6fe29b","joinFight(bytes32)":"095a6a33","joinFightFor(bytes32,address)":"898b318c","owner()":"8da5cb5b","renounceOwnership()":"715018a6","reservedTokenBalance(address)":"d24057ae","resolveFight(bytes32,address)":"fe188ed4","resolveFight(bytes32,address,uint256)":"ff7ac5dd","resolver()":"04f3bcec","setResolver(address)":"4e543b26","transferOwnership(address)":"f2fde38b"},"id":29}