{"abi":[{"type":"constructor","inputs":[{"name":"resolver_","type":"address","internalType":"address"},{"name":"owner_","type":"address","internalType":"address"}],"stateMutability":"nonpayable"},{"type":"function","name":"BPS_DENOMINATOR","inputs":[],"outputs":[{"name":"","type":"uint256","internalType":"uint256"}],"stateMutability":"view"},{"type":"function","name":"BURN_ADDRESS","inputs":[],"outputs":[{"name":"","type":"address","internalType":"address"}],"stateMutability":"view"},{"type":"function","name":"DEFAULT_OWNER_FEE_BPS","inputs":[],"outputs":[{"name":"","type":"uint256","internalType":"uint256"}],"stateMutability":"view"},{"type":"function","name":"DEFAULT_RESOLVER_FEE_BPS","inputs":[],"outputs":[{"name":"","type":"uint256","internalType":"uint256"}],"stateMutability":"view"},{"type":"function","name":"HOUSE_PCT","inputs":[],"outputs":[{"name":"","type":"uint256","internalType":"uint256"}],"stateMutability":"view"},{"type":"function","name":"SAIRI","inputs":[],"outputs":[{"name":"","type":"address","internalType":"address"}],"stateMutability":"view"},{"type":"function","name":"SWAP_ROUTER","inputs":[],"outputs":[{"name":"","type":"address","internalType":"address"}],"stateMutability":"view"},{"type":"function","name":"UNISWAP_POOL_FEE","inputs":[],"outputs":[{"name":"","type":"uint24","internalType":"uint24"}],"stateMutability":"view"},{"type":"function","name":"USDC","inputs":[],"outputs":[{"name":"","type":"address","internalType":"address"}],"stateMutability":"view"},{"type":"function","name":"USDT","inputs":[],"outputs":[{"name":"","type":"address","internalType":"address"}],"stateMutability":"view"},{"type":"function","name":"WETH","inputs":[],"outputs":[{"name":"","type":"address","internalType":"address"}],"stateMutability":"view"},{"type":"function","name":"WINNER_PCT","inputs":[],"outputs":[{"name":"","type":"uint256","internalType":"uint256"}],"stateMutability":"view"},{"type":"function","name":"cancelFight","inputs":[{"name":"fightId","type":"bytes32","internalType":"bytes32"}],"outputs":[],"stateMutability":"nonpayable"},{"type":"function","name":"createFight","inputs":[{"name":"fightId","type":"bytes32","internalType":"bytes32"},{"name":"token","type":"address","internalType":"address"},{"name":"stakeAmount","type":"uint256","internalType":"uint256"}],"outputs":[],"stateMutability":"nonpayable"},{"type":"function","name":"createFightFor","inputs":[{"name":"fightId","type":"bytes32","internalType":"bytes32"},{"name":"token","type":"address","internalType":"address"},{"name":"stakeAmount","type":"uint256","internalType":"uint256"},{"name":"playerA","type":"address","internalType":"address"}],"outputs":[],"stateMutability":"nonpayable"},{"type":"function","name":"createFightForWithDeadlines","inputs":[{"name":"fightId","type":"bytes32","internalType":"bytes32"},{"name":"token","type":"address","internalType":"address"},{"name":"stakeAmount","type":"uint256","internalType":"uint256"},{"name":"playerA","type":"address","internalType":"address"},{"name":"joinDeadline","type":"uint256","internalType":"uint256"},{"name":"resolveDeadline","type":"uint256","internalType":"uint256"}],"outputs":[],"stateMutability":"nonpayable"},{"type":"function","name":"createFightWithDeadlines","inputs":[{"name":"fightId","type":"bytes32","internalType":"bytes32"},{"name":"token","type":"address","internalType":"address"},{"name":"stakeAmount","type":"uint256","internalType":"uint256"},{"name":"joinDeadline","type":"uint256","internalType":"uint256"},{"name":"resolveDeadline","type":"uint256","internalType":"uint256"}],"outputs":[],"stateMutability":"nonpayable"},{"type":"function","name":"emergencyWithdraw","inputs":[{"name":"token","type":"address","internalType":"address"}],"outputs":[],"stateMutability":"nonpayable"},{"type":"function","name":"fights","inputs":[{"name":"","type":"bytes32","internalType":"bytes32"}],"outputs":[{"name":"fightId","type":"bytes32","internalType":"bytes32"},{"name":"tokenUsed","type":"address","internalType":"address"},{"name":"stakeAmount","type":"uint256","internalType":"uint256"},{"name":"joinDeadline","type":"uint256","internalType":"uint256"},{"name":"resolveDeadline","type":"uint256","internalType":"uint256"},{"name":"playerA","type":"address","internalType":"address"},{"name":"playerB","type":"address","internalType":"address"},{"name":"playerAStaked","type":"bool","internalType":"bool"},{"name":"playerBStaked","type":"bool","internalType":"bool"},{"name":"resolved","type":"bool","internalType":"bool"},{"name":"winner","type":"address","internalType":"address"}],"stateMutability":"view"},{"type":"function","name":"getFight","inputs":[{"name":"fightId","type":"bytes32","internalType":"bytes32"}],"outputs":[{"name":"fight","type":"tuple","internalType":"struct FaightersEscrow.Fight","components":[{"name":"fightId","type":"bytes32","internalType":"bytes32"},{"name":"tokenUsed","type":"address","internalType":"address"},{"name":"stakeAmount","type":"uint256","internalType":"uint256"},{"name":"joinDeadline","type":"uint256","internalType":"uint256"},{"name":"resolveDeadline","type":"uint256","internalType":"uint256"},{"name":"playerA","type":"address","internalType":"address"},{"name":"playerB","type":"address","internalType":"address"},{"name":"playerAStaked","type":"bool","internalType":"bool"},{"name":"playerBStaked","type":"bool","internalType":"bool"},{"name":"resolved","type":"bool","internalType":"bool"},{"name":"winner","type":"address","internalType":"address"}]}],"stateMutability":"view"},{"type":"function","name":"getWithdrawableSurplus","inputs":[{"name":"token","type":"address","internalType":"address"}],"outputs":[{"name":"amount","type":"uint256","internalType":"uint256"}],"stateMutability":"view"},{"type":"function","name":"joinFight","inputs":[{"name":"fightId","type":"bytes32","internalType":"bytes32"}],"outputs":[],"stateMutability":"nonpayable"},{"type":"function","name":"joinFightFor","inputs":[{"name":"fightId","type":"bytes32","internalType":"bytes32"},{"name":"playerB","type":"address","internalType":"address"}],"outputs":[],"stateMutability":"nonpayable"},{"type":"function","name":"owner","inputs":[],"outputs":[{"name":"","type":"address","internalType":"address"}],"stateMutability":"view"},{"type":"function","name":"ownerFeeBps","inputs":[],"outputs":[{"name":"","type":"uint256","internalType":"uint256"}],"stateMutability":"view"},{"type":"function","name":"pause","inputs":[],"outputs":[],"stateMutability":"nonpayable"},{"type":"function","name":"paused","inputs":[],"outputs":[{"name":"","type":"bool","internalType":"bool"}],"stateMutability":"view"},{"type":"function","name":"renounceOwnership","inputs":[],"outputs":[],"stateMutability":"nonpayable"},{"type":"function","name":"reservedTokenBalance","inputs":[{"name":"","type":"address","internalType":"address"}],"outputs":[{"name":"","type":"uint256","internalType":"uint256"}],"stateMutability":"view"},{"type":"function","name":"resolveFight","inputs":[{"name":"fightId","type":"bytes32","internalType":"bytes32"},{"name":"winnerAddress","type":"address","internalType":"address"}],"outputs":[],"stateMutability":"nonpayable"},{"type":"function","name":"resolveFight","inputs":[{"name":"fightId","type":"bytes32","internalType":"bytes32"},{"name":"winnerAddress","type":"address","internalType":"address"},{"name":"minSairiOut","type":"uint256","internalType":"uint256"}],"outputs":[],"stateMutability":"nonpayable"},{"type":"function","name":"resolver","inputs":[],"outputs":[{"name":"","type":"address","internalType":"address"}],"stateMutability":"view"},{"type":"function","name":"resolverFeeBps","inputs":[],"outputs":[{"name":"","type":"uint256","internalType":"uint256"}],"stateMutability":"view"},{"type":"function","name":"setHouseFeeBps","inputs":[{"name":"newOwnerFeeBps","type":"uint256","internalType":"uint256"},{"name":"newResolverFeeBps","type":"uint256","internalType":"uint256"}],"outputs":[],"stateMutability":"nonpayable"},{"type":"function","name":"setResolver","inputs":[{"name":"newResolver","type":"address","internalType":"address"}],"outputs":[],"stateMutability":"nonpayable"},{"type":"function","name":"transferOwnership","inputs":[{"name":"newOwner","type":"address","internalType":"address"}],"outputs":[],"stateMutability":"nonpayable"},{"type":"function","name":"unpause","inputs":[],"outputs":[],"stateMutability":"nonpayable"},{"type":"event","name":"EmergencyWithdraw","inputs":[{"name":"token","type":"address","indexed":true,"internalType":"address"},{"name":"to","type":"address","indexed":true,"internalType":"address"},{"name":"amount","type":"uint256","indexed":false,"internalType":"uint256"}],"anonymous":false},{"type":"event","name":"FightCancelled","inputs":[{"name":"fightId","type":"bytes32","indexed":true,"internalType":"bytes32"},{"name":"cancelledBy","type":"address","indexed":true,"internalType":"address"}],"anonymous":false},{"type":"event","name":"FightCreated","inputs":[{"name":"fightId","type":"bytes32","indexed":true,"internalType":"bytes32"},{"name":"playerA","type":"address","indexed":true,"internalType":"address"},{"name":"token","type":"address","indexed":true,"internalType":"address"},{"name":"stakeAmount","type":"uint256","indexed":false,"internalType":"uint256"}],"anonymous":false},{"type":"event","name":"FightJoined","inputs":[{"name":"fightId","type":"bytes32","indexed":true,"internalType":"bytes32"},{"name":"playerB","type":"address","indexed":true,"internalType":"address"}],"anonymous":false},{"type":"event","name":"FightResolved","inputs":[{"name":"fightId","type":"bytes32","indexed":true,"internalType":"bytes32"},{"name":"winner","type":"address","indexed":true,"internalType":"address"},{"name":"tokenUsed","type":"address","indexed":true,"internalType":"address"},{"name":"winnerPayout","type":"uint256","indexed":false,"internalType":"uint256"},{"name":"houseCutInput","type":"uint256","indexed":false,"internalType":"uint256"},{"name":"sairiBurned","type":"uint256","indexed":false,"internalType":"uint256"}],"anonymous":false},{"type":"event","name":"HouseFeeConfigUpdated","inputs":[{"name":"previousOwnerFeeBps","type":"uint256","indexed":true,"internalType":"uint256"},{"name":"previousResolverFeeBps","type":"uint256","indexed":true,"internalType":"uint256"},{"name":"newOwnerFeeBps","type":"uint256","indexed":false,"internalType":"uint256"},{"name":"newResolverFeeBps","type":"uint256","indexed":false,"internalType":"uint256"}],"anonymous":false},{"type":"event","name":"HouseFeesDistributed","inputs":[{"name":"fightId","type":"bytes32","indexed":true,"internalType":"bytes32"},{"name":"tokenUsed","type":"address","indexed":true,"internalType":"address"},{"name":"ownerFeeAmount","type":"uint256","indexed":false,"internalType":"uint256"},{"name":"resolverFeeAmount","type":"uint256","indexed":false,"internalType":"uint256"},{"name":"burnInputAmount","type":"uint256","indexed":false,"internalType":"uint256"}],"anonymous":false},{"type":"event","name":"OwnershipTransferred","inputs":[{"name":"previousOwner","type":"address","indexed":true,"internalType":"address"},{"name":"newOwner","type":"address","indexed":true,"internalType":"address"}],"anonymous":false},{"type":"event","name":"Paused","inputs":[{"name":"account","type":"address","indexed":false,"internalType":"address"}],"anonymous":false},{"type":"event","name":"ResolverUpdated","inputs":[{"name":"previousResolver","type":"address","indexed":true,"internalType":"address"},{"name":"newResolver","type":"address","indexed":true,"internalType":"address"}],"anonymous":false},{"type":"event","name":"Unpaused","inputs":[{"name":"account","type":"address","indexed":false,"internalType":"address"}],"anonymous":false},{"type":"error","name":"AddressEmptyCode","inputs":[{"name":"target","type":"address","internalType":"address"}]},{"type":"error","name":"AddressInsufficientBalance","inputs":[{"name":"account","type":"address","internalType":"address"}]},{"type":"error","name":"AlreadyJoined","inputs":[{"name":"fightId","type":"bytes32","internalType":"bytes32"}]},{"type":"error","name":"CannotJoinOwnFight","inputs":[]},{"type":"error","name":"EnforcedPause","inputs":[]},{"type":"error","name":"ExpectedPause","inputs":[]},{"type":"error","name":"FailedInnerCall","inputs":[]},{"type":"error","name":"FightAlreadyExists","inputs":[{"name":"fightId","type":"bytes32","internalType":"bytes32"}]},{"type":"error","name":"FightNotFound","inputs":[{"name":"fightId","type":"bytes32","internalType":"bytes32"}]},{"type":"error","name":"FightNotReady","inputs":[{"name":"fightId","type":"bytes32","internalType":"bytes32"}]},{"type":"error","name":"FightResolvedAlready","inputs":[{"name":"fightId","type":"bytes32","internalType":"bytes32"}]},{"type":"error","name":"InvalidDeadlineWindow","inputs":[]},{"type":"error","name":"InvalidFightId","inputs":[]},{"type":"error","name":"InvalidHouseFeeSplit","inputs":[]},{"type":"error","name":"InvalidPercentConfig","inputs":[]},{"type":"error","name":"InvalidStakeAmount","inputs":[]},{"type":"error","name":"InvalidWinner","inputs":[{"name":"winner","type":"address","internalType":"address"}]},{"type":"error","name":"JoinDeadlinePassed","inputs":[{"name":"fightId","type":"bytes32","internalType":"bytes32"},{"name":"joinDeadline","type":"uint256","internalType":"uint256"}]},{"type":"error","name":"MinSairiOutRequired","inputs":[]},{"type":"error","name":"NoSurplusAvailable","inputs":[{"name":"token","type":"address","internalType":"address"}]},{"type":"error","name":"OwnableInvalidOwner","inputs":[{"name":"owner","type":"address","internalType":"address"}]},{"type":"error","name":"OwnableUnauthorizedAccount","inputs":[{"name":"account","type":"address","internalType":"address"}]},{"type":"error","name":"ReentrancyGuardReentrantCall","inputs":[]},{"type":"error","name":"ResolveDeadlinePassed","inputs":[{"name":"fightId","type":"bytes32","internalType":"bytes32"},{"name":"resolveDeadline","type":"uint256","internalType":"uint256"}]},{"type":"error","name":"ResolverOnly","inputs":[]},{"type":"error","name":"SafeERC20FailedOperation","inputs":[{"name":"token","type":"address","internalType":"address"}]},{"type":"error","name":"Unauthorized","inputs":[]},{"type":"error","name":"UnsupportedToken","inputs":[{"name":"token","type":"address","internalType":"address"}]},{"type":"error","name":"ZeroAddress","inputs":[]}],"bytecode":{"object":"0x608060405234801562000010575f80fd5b50604051620023fd380380620023fd8339810160408190526200003391620001a0565b806001600160a01b0381166200006257604051631e4fbdf760e01b81525f600482015260240160405180910390fd5b6200006d8162000135565b505f805460ff60a01b19169055600180556001600160a01b038216620000a65760405163d92e233d60e01b815260040160405180910390fd5b620000b4601e6046620001d6565b606414620000d557604051630cb521c960e01b815260040160405180910390fd5b600280546001600160a01b0319166001600160a01b0384161790556101f460038190556004819055612710906200010d9080620001d6565b11156200012d5760405163c198284760e01b815260040160405180910390fd5b5050620001fc565b5f80546001600160a01b038381166001600160a01b0319831681178455604051919092169283917f8be0079c531659141344cd1fd0a4f28419497f9722a3daafe3b4186f6b6457e09190a35050565b80516001600160a01b03811681146200019b575f80fd5b919050565b5f8060408385031215620001b2575f80fd5b620001bd8362000184565b9150620001cd6020840162000184565b90509250929050565b80820180821115620001f657634e487b7160e01b5f52601160045260245ffd5b92915050565b6121f3806200020a5f395ff3fe608060405234801561000f575f80fd5b506004361061021e575f3560e01c80638da5cb5b1161012a578063c6005893116100b4578063f2fde38b11610079578063f2fde38b1461065b578063fccc28131461066e578063fe188ed414610677578063fe6fe29b1461068a578063ff7ac5dd1461069d575f80fd5b8063c6005893146104e0578063d24057ae146104fb578063e12dd5441461051a578063e1a452181461063f578063e23ab80414610648575f80fd5b80639b48e2e4116100fa5780639b48e2e4146104745780639e01854a14610487578063ad5c46481461049a578063b05a4428146104a8578063c54e44eb146104c5575f80fd5b80638da5cb5b1461035857806391d056661461036857806392fc464d1461045057806399ca258714610459575f80fd5b806357501a31116101ab578063715018a61161017b578063715018a6146103125780638278e8a81461031a5780638456cb5914610322578063898b318c1461032a57806389a302711461033d575f80fd5b806357501a31146102905780635c975abb146102d0578063682b3a98146102ec5780636ff1c9bc146102ff575f80fd5b8063339201f9116101f1578063339201f9146102905780633f4ba83a1461029957806345712536146102a15780634e543b26146102aa578063545bb371146102bd575f80fd5b806304f3bcec14610222578063095a6a331461025257806309cf827f1461026757806322bf50ea1461027a575b5f80fd5b600254610235906001600160a01b031681565b6040516001600160a01b0390911681526020015b60405180910390f35b610265610260366004611e89565b6106b0565b005b610265610275366004611ea0565b6106d6565b610282601e81565b604051908152602001610249565b6102826101f481565b61026561075f565b61028260035481565b6102656102b8366004611edb565b610771565b6102656102cb366004611ef4565b6107f1565b5f54600160a01b900460ff166040519015158152602001610249565b6102656102fa366004611e89565b61086f565b61026561030d366004611edb565b610aa4565b610265610b73565b610282604681565b610265610b84565b610265610338366004611f37565b610b94565b61023573833589fcd6edb6e08f4c7c32d4f71b54bda0291381565b5f546001600160a01b0316610235565b6103ed610376366004611e89565b600660208190525f91825260409091208054600182015460028301546003840154600485015460058601549686015460079096015494966001600160a01b0394851696939592949193908216928183169260ff600160a01b8404811693600160a81b8104821693600160b01b90910490911691168b565b604080519b8c526001600160a01b039a8b1660208d01528b019890985260608a0196909652608089019490945291861660a0880152851660c0870152151560e0860152151561010085015215156101208401521661014082015261016001610249565b61028260045481565b61023573de61878b0b21ce395266c44d4d548d1c72a3eb0781565b610265610482366004611f61565b610c0c565b610265610495366004611f93565b610c38565b6102356006602160991b0181565b6104b1610bb881565b60405162ffffff9091168152602001610249565b61023573fde4c96c8593536e31f229ea8f37b2ada2699bb281565b610235732626664c2603336e57b271c5c0b26f421741e48181565b610282610509366004611edb565b60056020525f908152604090205481565b610632610528366004611e89565b60408051610160810182525f80825260208201819052918101829052606081018290526080810182905260a0810182905260c0810182905260e0810182905261010081018290526101208101829052610140810191909152505f908152600660208181526040928390208351610160810185528154815260018201546001600160a01b039081169382019390935260028201549481019490945260038101546060850152600481015460808501526005810154821660a08501529182015480821660c085015260ff600160a01b82048116151560e0860152600160a81b820481161515610100860152600160b01b9091041615156101208401526007909101541661014082015290565b6040516102499190611fd5565b61028261271081565b610265610656366004612097565b610c66565b610265610669366004611edb565b610ce6565b61023561dead81565b610265610685366004611f37565b610d20565b610282610698366004611edb565b610d65565b6102656106ab366004611f61565b610e0d565b6106b8610e52565b6106c0610e7c565b6106ca8133610ea6565b6106d360018055565b50565b6106de611064565b6127106106eb82846120ff565b111561070a5760405163c198284760e01b815260040160405180910390fd5b6003805460048054928590558390556040805185815260208101859052919291829184917f5427e5724251f5f835394f1a1641cdd4911748bf5ee266a73c175d2b0d95cf56910160405180910390a350505050565b610767611064565b61076f611090565b565b610779611064565b6001600160a01b0381166107a05760405163d92e233d60e01b815260040160405180910390fd5b600280546001600160a01b038381166001600160a01b0319831681179093556040519116919082907f84b83d2b66cac119ccaaca68b476b0dc5371d5f2fd27f697770a910175fd38b6905f90a35050565b6107f9610e52565b6002546001600160a01b031633146108235760405162f6250b60e81b815260040160405180910390fd5b61082b610e7c565b6001600160a01b0381166108525760405163d92e233d60e01b815260040160405180910390fd5b610860848484845f806110e4565b61086960018055565b50505050565b610877610e52565b61087f610e7c565b5f81815260066020526040902060058101546001600160a01b03166108bf57604051634f36907760e11b8152600481018390526024015b60405180910390fd5b6006810154600160b01b900460ff16156108ef5760405163e4f5cb2560e01b8152600481018390526024016108b6565b6002546005820154336001600160a01b039283168114925f921614801561092257506006830154600160a81b900460ff16155b905081158015610930575080155b1561094d576040516282b42960e81b815260040160405180910390fd5b60068301545f90600160a01b900460ff161561097557600284015461097290826120ff565b90505b6006840154600160a81b900460ff161561099b57600284015461099890826120ff565b90505b60018401546001600160a01b03165f90815260056020526040812080548392906109c6908490612112565b909155505060068401805460ff60b01b1916600160b01b17908190556007850180546001600160a01b031916905560018501546001600160a01b031690600160a01b900460ff1615610a345760058501546002860154610a34916001600160a01b03848116929116906113f7565b6006850154600160a81b900460ff1615610a6a5760068501546002860154610a6a916001600160a01b03848116929116906113f7565b604051339087907fbf5a0814c938c654b0e4bf6ae8d16dffb5b71733990b19e57bb59534c389e5d8905f90a350505050506106d360018055565b610aac611064565b610ab4610e52565b5f610abe82610d65565b90506001811015610aed57604051635b8d44b960e11b81526001600160a01b03831660048201526024016108b6565b610b12610b015f546001600160a01b031690565b6001600160a01b03841690836113f7565b5f546001600160a01b03166001600160a01b0316826001600160a01b03167ff24ef89f38eadc1bde50701ad6e4d6d11a2dc24f7cf834a486991f388332850483604051610b6191815260200190565b60405180910390a3506106d360018055565b610b7b611064565b61076f5f611456565b610b8c611064565b61076f6114a5565b610b9c610e52565b6002546001600160a01b03163314610bc65760405162f6250b60e81b815260040160405180910390fd5b610bce610e7c565b6001600160a01b038116610bf55760405163d92e233d60e01b815260040160405180910390fd5b610bff8282610ea6565b610c0860018055565b5050565b610c14610e52565b610c1c610e7c565b610c2a838383335f806110e4565b610c3360018055565b505050565b610c40610e52565b610c48610e7c565b610c568585853386866110e4565b610c5f60018055565b5050505050565b610c6e610e52565b6002546001600160a01b03163314610c985760405162f6250b60e81b815260040160405180910390fd5b610ca0610e7c565b6001600160a01b038316610cc75760405163d92e233d60e01b815260040160405180910390fd5b610cd58686868686866110e4565b610cde60018055565b505050505050565b610cee611064565b6001600160a01b038116610d1757604051631e4fbdf760e01b81525f60048201526024016108b6565b6106d381611456565b610d28610e52565b6002546001600160a01b03163314610d525760405162f6250b60e81b815260040160405180910390fd5b610d5a610e7c565b610bff82825f6114e7565b6040516370a0823160e01b81523060048201525f9081906001600160a01b038416906370a0823190602401602060405180830381865afa158015610dab573d5f803e3d5ffd5b505050506040513d601f19601f82011682018060405250810190610dcf9190612125565b6001600160a01b0384165f9081526005602052604090205490915080821115610e0457610dfc8183612112565b949350505050565b505f9392505050565b610e15610e52565b6002546001600160a01b03163314610e3f5760405162f6250b60e81b815260040160405180910390fd5b610e47610e7c565b610c2a8383836114e7565b600260015403610e7557604051633ee5aeb560e01b815260040160405180910390fd5b6002600155565b5f54600160a01b900460ff161561076f5760405163d93c066560e01b815260040160405180910390fd5b5f82815260066020526040902060058101546001600160a01b0316610ee157604051634f36907760e11b8152600481018490526024016108b6565b6006810154600160b01b900460ff1615610f115760405163e4f5cb2560e01b8152600481018490526024016108b6565b6006810154600160a81b900460ff1615610f415760405163eb362cf960e01b8152600481018490526024016108b6565b60058101546001600160a01b0390811690831603610f7257604051638b791dbf60e01b815260040160405180910390fd5b600381015415801590610f885750806003015442115b15610fb65760038101546040516338f44c7f60e21b81526108b6918591600401918252602082015260400190565b60028101546001820154610fd9916001600160a01b039091169084903090611a43565b600281015460018201546001600160a01b03165f90815260056020526040812080549091906110099084906120ff565b9091555050600681018054600161ff0160a01b0319166001600160a01b038416908117600160a81b1790915560405184907fd6611b95639cbe27ceb686419e589b7ae1961226f668ed2118ca634678a5c60e905f90a3505050565b5f546001600160a01b0316331461076f5760405163118cdaa760e01b81523360048201526024016108b6565b611098611a7c565b5f805460ff60a01b191690557f5db9ee0a495bf2e6ff9c91a7834c1ba4fdd244a5e8aa4e537bd38aeae4b073aa335b6040516001600160a01b03909116815260200160405180910390a1565b856111025760405163bfc270c960e01b815260040160405180910390fd5b61110b85611aa5565b61113357604051635f8b555b60e11b81526001600160a01b03861660048201526024016108b6565b835f0361115357604051630103be3b60e21b815260040160405180910390fd5b5f86815260066020526040902060058101546001600160a01b03161561118f57604051630b5eae5d60e31b8152600481018890526024016108b6565b6111998383611b34565b6111ae6001600160a01b038716853088611a43565b6001600160a01b0386165f90815260056020526040812080548792906111d59084906120ff565b92505081905550604051806101600160405280888152602001876001600160a01b03168152602001868152602001848152602001838152602001856001600160a01b031681526020015f6001600160a01b031681526020016001151581526020015f151581526020015f151581526020015f6001600160a01b031681525060065f8981526020019081526020015f205f820151815f01556020820151816001015f6101000a8154816001600160a01b0302191690836001600160a01b0316021790555060408201518160020155606082015181600301556080820151816004015560a0820151816005015f6101000a8154816001600160a01b0302191690836001600160a01b0316021790555060c0820151816006015f6101000a8154816001600160a01b0302191690836001600160a01b0316021790555060e08201518160060160146101000a81548160ff0219169083151502179055506101008201518160060160156101000a81548160ff0219169083151502179055506101208201518160060160166101000a81548160ff021916908315150217905550610140820151816007015f6101000a8154816001600160a01b0302191690836001600160a01b03160217905550905050856001600160a01b0316846001600160a01b0316887f3da64c852b707e38e842519977f32c8c2c9dc3860fefb03519e361f73a245b96886040516113e691815260200190565b60405180910390a450505050505050565b6040516001600160a01b03838116602483015260448201839052610c3391859182169063a9059cbb906064015b604051602081830303815290604052915060e01b6020820180516001600160e01b038381831617835250505050611bc6565b5f80546001600160a01b038381166001600160a01b0319831681178455604051919092169283917f8be0079c531659141344cd1fd0a4f28419497f9722a3daafe3b4186f6b6457e09190a35050565b6114ad610e7c565b5f805460ff60a01b1916600160a01b1790557f62e78cea01bee320cd4e420270b5ea74000d11b0c9f74754ebdbfc544b05a2586110c73390565b5f83815260066020526040902060058101546001600160a01b031661152257604051634f36907760e11b8152600481018590526024016108b6565b6006810154600160b01b900460ff16156115525760405163e4f5cb2560e01b8152600481018590526024016108b6565b6006810154600160a01b900460ff16158061157957506006810154600160a81b900460ff16155b1561159a57604051631eea52db60e31b8152600481018590526024016108b6565b60058101546001600160a01b038481169116148015906115ca575060068101546001600160a01b03848116911614155b156115f3576040516312967cad60e31b81526001600160a01b03841660048201526024016108b6565b6004810154158015906116095750806004015442115b15611634576004808201546040516312fa774b60e31b815291820186905260248201526044016108b6565b5f81600201546002611646919061213c565b90505f606461165660468461213c565b6116609190612153565b90505f61166d8284612112565b90505f61271060035483611681919061213c565b61168b9190612153565b90505f6127106004548461169f919061213c565b6116a99190612153565b90505f816116b78486612112565b6116c19190612112565b60018801546001600160a01b03165f908152600560205260408120805492935088929091906116f1908490612112565b909155505060068701805460ff60b01b1916600160b01b1790556007870180546001600160a01b03808c166001600160a01b031990921691909117909155600188015416611740818b886113f7565b831561176b5761176b61175a5f546001600160a01b031690565b6001600160a01b03831690866113f7565b821561178b5760025461178b906001600160a01b038381169116856113f7565b600188015460408051868152602081018690529081018490526001600160a01b03909116908c907f2494b8e82c83c754d70ab25e39b262ed454ee571cb573950775d063d03fead909060600160405180910390a360018801545f906001600160a01b031673de61878b0b21ce395266c44d4d548d1c72a3eb06190161182d5750818015611828576118286001600160a01b03831661dead856113f7565b6119de565b825f0361183b57505f6119de565b895f0361185b5760405163381425e560e01b815260040160405180910390fd5b6118836001600160a01b038316732626664c2603336e57b271c5c0b26f421741e48185611c27565b604080516101008101825260018b01546001600160a01b0316815273de61878b0b21ce395266c44d4d548d1c72a3eb076020820152610bb88183015230606082015242608082015260a0810185905260c081018c90525f60e0820152905163414bf38960e01b8152732626664c2603336e57b271c5c0b26f421741e4819063414bf3899061197990849060040181516001600160a01b03908116825260208084015182169083015260408084015162ffffff16908301526060808401518216908301526080808401519083015260a0838101519083015260c0808401519083015260e09283015116918101919091526101000190565b6020604051808303815f875af1158015611995573d5f803e3d5ffd5b505050506040513d601f19601f820116820180604052508101906119b99190612125565b91506119dc73de61878b0b21ce395266c44d4d548d1c72a3eb0761dead846113f7565b505b600189015460408051898152602081018990529081018390526001600160a01b03918216918d16908e907f474befbea7a499c975feb76e94d59d7f1f356ad469601a43578ed85d09237c949060600160405180910390a4505050505050505050505050565b6040516001600160a01b0384811660248301528381166044830152606482018390526108699186918216906323b872dd90608401611424565b5f54600160a01b900460ff1661076f57604051638dfc202b60e01b815260040160405180910390fd5b5f6001600160a01b0382166006602160991b011480611ae057506001600160a01b03821673833589fcd6edb6e08f4c7c32d4f71b54bda02913145b80611b0757506001600160a01b03821673fde4c96c8593536e31f229ea8f37b2ada2699bb2145b80611b2e57506001600160a01b03821673de61878b0b21ce395266c44d4d548d1c72a3eb07145b92915050565b8115801590611b435750428211155b15611b615760405163b20aeb0360e01b815260040160405180910390fd5b8015801590611b705750428111155b15611b8e5760405163b20aeb0360e01b815260040160405180910390fd5b8115801590611b9c57508015155b8015611ba85750818111155b15610c085760405163b20aeb0360e01b815260040160405180910390fd5b5f611bda6001600160a01b03841683611cb6565b905080515f14158015611bfe575080806020019051810190611bfc9190612172565b155b15610c3357604051635274afe760e01b81526001600160a01b03841660048201526024016108b6565b604080516001600160a01b038416602482015260448082018490528251808303909101815260649091019091526020810180516001600160e01b031663095ea7b360e01b179052611c788482611cca565b610869576040516001600160a01b0384811660248301525f6044830152611cac91869182169063095ea7b390606401611424565b6108698482611bc6565b6060611cc383835f611d6b565b9392505050565b5f805f846001600160a01b031684604051611ce59190612191565b5f604051808303815f865af19150503d805f8114611d1e576040519150601f19603f3d011682016040523d82523d5f602084013e611d23565b606091505b5091509150818015611d4d575080511580611d4d575080806020019051810190611d4d9190612172565b8015611d6257505f856001600160a01b03163b115b95945050505050565b606081471015611d905760405163cd78605960e01b81523060048201526024016108b6565b5f80856001600160a01b03168486604051611dab9190612191565b5f6040518083038185875af1925050503d805f8114611de5576040519150601f19603f3d011682016040523d82523d5f602084013e611dea565b606091505b5091509150611dfa868383611e04565b9695505050505050565b606082611e1957611e1482611e60565b611cc3565b8151158015611e3057506001600160a01b0384163b155b15611e5957604051639996b31560e01b81526001600160a01b03851660048201526024016108b6565b5080611cc3565b805115611e705780518082602001fd5b604051630a12f52160e11b815260040160405180910390fd5b5f60208284031215611e99575f80fd5b5035919050565b5f8060408385031215611eb1575f80fd5b50508035926020909101359150565b80356001600160a01b0381168114611ed6575f80fd5b919050565b5f60208284031215611eeb575f80fd5b611cc382611ec0565b5f805f8060808587031215611f07575f80fd5b84359350611f1760208601611ec0565b925060408501359150611f2c60608601611ec0565b905092959194509250565b5f8060408385031215611f48575f80fd5b82359150611f5860208401611ec0565b90509250929050565b5f805f60608486031215611f73575f80fd5b83359250611f8360208501611ec0565b9150604084013590509250925092565b5f805f805f60a08688031215611fa7575f80fd5b85359450611fb760208701611ec0565b94979496505050506040830135926060810135926080909101359150565b81518152602080830151610160830191611ff9908401826001600160a01b03169052565b5060408301516040830152606083015160608301526080830151608083015260a083015161203260a08401826001600160a01b03169052565b5060c083015161204d60c08401826001600160a01b03169052565b5060e083015161206160e084018215159052565b506101008381015115159083015261012080840151151590830152610140928301516001600160a01b0316929091019190915290565b5f805f805f8060c087890312156120ac575f80fd5b863595506120bc60208801611ec0565b9450604087013593506120d160608801611ec0565b92506080870135915060a087013590509295509295509295565b634e487b7160e01b5f52601160045260245ffd5b80820180821115611b2e57611b2e6120eb565b81810381811115611b2e57611b2e6120eb565b5f60208284031215612135575f80fd5b5051919050565b8082028115828204841417611b2e57611b2e6120eb565b5f8261216d57634e487b7160e01b5f52601260045260245ffd5b500490565b5f60208284031215612182575f80fd5b81518015158114611cc3575f80fd5b5f82515f5b818110156121b05760208186018101518583015201612196565b505f92019182525091905056fea2646970667358221220e72fa6051e1430ddd73744b9a605fbfafb9f146d0337eb71ee76d22bdc4f3ce464736f6c63430008140033","linkReferences":{}},"methodIdentifiers":{"BPS_DENOMINATOR()":"e1a45218","BURN_ADDRESS()":"fccc2813","DEFAULT_OWNER_FEE_BPS()":"339201f9","DEFAULT_RESOLVER_FEE_BPS()":"57501a31","HOUSE_PCT()":"22bf50ea","SAIRI()":"99ca2587","SWAP_ROUTER()":"c6005893","UNISWAP_POOL_FEE()":"b05a4428","USDC()":"89a30271","USDT()":"c54e44eb","WETH()":"ad5c4648","WINNER_PCT()":"8278e8a8","cancelFight(bytes32)":"682b3a98","createFight(bytes32,address,uint256)":"9b48e2e4","createFightFor(bytes32,address,uint256,address)":"545bb371","createFightForWithDeadlines(bytes32,address,uint256,address,uint256,uint256)":"e23ab804","createFightWithDeadlines(bytes32,address,uint256,uint256,uint256)":"9e01854a","emergencyWithdraw(address)":"6ff1c9bc","fights(bytes32)":"91d05666","getFight(bytes32)":"e12dd544","getWithdrawableSurplus(address)":"fe6fe29b","joinFight(bytes32)":"095a6a33","joinFightFor(bytes32,address)":"898b318c","owner()":"8da5cb5b","ownerFeeBps()":"45712536","pause()":"8456cb59","paused()":"5c975abb","renounceOwnership()":"715018a6","reservedTokenBalance(address)":"d24057ae","resolveFight(bytes32,address)":"fe188ed4","resolveFight(bytes32,address,uint256)":"ff7ac5dd","resolver()":"04f3bcec","resolverFeeBps()":"92fc464d","setHouseFeeBps(uint256,uint256)":"09cf827f","setResolver(address)":"4e543b26","transferOwnership(address)":"f2fde38b","unpause()":"3f4ba83a"},"id":32}