{"abi":[{"type":"function","name":"amountOut","inputs":[],"outputs":[{"name":"","type":"uint256","internalType":"uint256"}],"stateMutability":"view"},{"type":"function","name":"exactInputSingle","inputs":[{"name":"params","type":"tuple","internalType":"struct ISwapRouter.ExactInputSingleParams","components":[{"name":"tokenIn","type":"address","internalType":"address"},{"name":"tokenOut","type":"address","internalType":"address"},{"name":"fee","type":"uint24","internalType":"uint24"},{"name":"recipient","type":"address","internalType":"address"},{"name":"deadline","type":"uint256","internalType":"uint256"},{"name":"amountIn","type":"uint256","internalType":"uint256"},{"name":"amountOutMinimum","type":"uint256","internalType":"uint256"},{"name":"sqrtPriceLimitX96","type":"uint160","internalType":"uint160"}]}],"outputs":[{"name":"","type":"uint256","internalType":"uint256"}],"stateMutability":"payable"},{"type":"function","name":"lastAmountIn","inputs":[],"outputs":[{"name":"","type":"uint256","internalType":"uint256"}],"stateMutability":"view"},{"type":"function","name":"lastAmountOutMinimum","inputs":[],"outputs":[{"name":"","type":"uint256","internalType":"uint256"}],"stateMutability":"view"},{"type":"function","name":"lastDeadline","inputs":[],"outputs":[{"name":"","type":"uint256","internalType":"uint256"}],"stateMutability":"view"},{"type":"function","name":"lastFee","inputs":[],"outputs":[{"name":"","type":"uint24","internalType":"uint24"}],"stateMutability":"view"},{"type":"function","name":"lastRecipient","inputs":[],"outputs":[{"name":"","type":"address","internalType":"address"}],"stateMutability":"view"},{"type":"function","name":"lastSqrtPriceLimitX96","inputs":[],"outputs":[{"name":"","type":"uint160","internalType":"uint160"}],"stateMutability":"view"},{"type":"function","name":"lastTokenIn","inputs":[],"outputs":[{"name":"","type":"address","internalType":"address"}],"stateMutability":"view"},{"type":"function","name":"lastTokenOut","inputs":[],"outputs":[{"name":"","type":"address","internalType":"address"}],"stateMutability":"view"},{"type":"function","name":"setAmountOut","inputs":[{"name":"newAmountOut","type":"uint256","internalType":"uint256"}],"outputs":[],"stateMutability":"nonpayable"}],"bytecode":{"object":"0x608060405234801561000f575f80fd5b506105d78061001d5f395ff3fe60806040526004361061009a575f3560e01c8063b040eb8511610062578063b040eb851461015a578063bcc6d9f514610179578063d22aadf71461018e578063d23ee66b146101a3578063d97aae4b146101c2578063e21a5602146101e1575f80fd5b8063414bf3891461009e57806346ee8d00146100c457806389db3d20146100d857806391fcacff146100ed5780639801134e14610124575b5f80fd5b6100b16100ac3660046104f9565b610201565b6040519081526020015b60405180910390f35b3480156100cf575f80fd5b506100b15f5481565b3480156100e3575f80fd5b506100b160045481565b3480156100f8575f80fd5b5060075461010c906001600160a01b031681565b6040516001600160a01b0390911681526020016100bb565b34801561012f575f80fd5b5060035461014690600160a01b900462ffffff1681565b60405162ffffff90911681526020016100bb565b348015610165575f80fd5b5060025461010c906001600160a01b031681565b348015610184575f80fd5b506100b160065481565b348015610199575f80fd5b506100b160055481565b3480156101ae575f80fd5b5060035461010c906001600160a01b031681565b3480156101cd575f80fd5b5060015461010c906001600160a01b031681565b3480156101ec575f80fd5b506101ff6101fb366004610510565b5f55565b005b5f61020f602083018361053e565b600180546001600160a01b0319166001600160a01b039290921691909117905561023f604083016020840161053e565b600280546001600160a01b0319166001600160a01b039290921691909117905561026f608083016060840161053e565b600380546001600160a01b0319166001600160a01b039290921691909117905561029f6060830160408401610560565b6003805462ffffff92909216600160a01b0262ffffff60a01b19909216919091179055608082013560045560a082013560055560c08201356006556102eb610100830160e0840161053e565b600780546001600160a01b0319166001600160a01b0392909216919091179055610318602083018361053e565b6040516323b872dd60e01b815233600482015230602482015260a084013560448201526001600160a01b0391909116906323b872dd906064016020604051808303815f875af115801561036d573d5f803e3d5ffd5b505050506040513d601f19601f820116820180604052508101906103919190610582565b6103d85760405162461bcd60e51b81526020600482015260136024820152721d1c985b9cd9995c919c9bdb4819985a5b1959606a1b60448201526064015b60405180910390fd5b8160c001355f5410156104185760405162461bcd60e51b8152602060048201526008602482015267736c69707061676560c01b60448201526064016103cf565b610428604083016020840161053e565b6001600160a01b031663a9059cbb610446608085016060860161053e565b5f546040516001600160e01b031960e085901b1681526001600160a01b03909216600483015260248201526044016020604051808303815f875af1158015610490573d5f803e3d5ffd5b505050506040513d601f19601f820116820180604052508101906104b49190610582565b6104f25760405162461bcd60e51b815260206004820152600f60248201526e1d1c985b9cd9995c8819985a5b1959608a1b60448201526064016103cf565b50505f5490565b5f610100828403121561050a575f80fd5b50919050565b5f60208284031215610520575f80fd5b5035919050565b6001600160a01b038116811461053b575f80fd5b50565b5f6020828403121561054e575f80fd5b813561055981610527565b9392505050565b5f60208284031215610570575f80fd5b813562ffffff81168114610559575f80fd5b5f60208284031215610592575f80fd5b81518015158114610559575f80fdfea26469706673582212202b341021570c4833ea166c5efc6a1c7685c375c7fdb8a7e628f8734ddece5c6564736f6c63430008140033","linkReferences":{}},"methodIdentifiers":{"amountOut()":"46ee8d00","exactInputSingle((address,address,uint24,address,uint256,uint256,uint256,uint160))":"414bf389","lastAmountIn()":"d22aadf7","lastAmountOutMinimum()":"bcc6d9f5","lastDeadline()":"89db3d20","lastFee()":"9801134e","lastRecipient()":"d23ee66b","lastSqrtPriceLimitX96()":"91fcacff","lastTokenIn()":"d97aae4b","lastTokenOut()":"b040eb85","setAmountOut(uint256)":"e21a5602"},"id":33}